:020000040800F2
:10000000402400200501000845390008C7310008D8
:10001000AD370008710A00083547000800000000ED
:10002000000000000000000000000000594000082F
:10003000B70A0008000000007D3F00085B40000890
:100040001F0100081F0100081F0100081F01000810
:100050001F0100081F0100081F010008B90A00085D
:10006000BF0A0008C50A00081F010008750A000839
:100070001F0100081F0100081F010008810A000875
:100080001F0100081F0100081F0100081F010008D0
:100090001F0100081F0100081F010008CB0A00080B
:1000A0001F0100081F0100081F0100081F010008B0
:1000B000D9400008E54000081F0100081F010008A2
:1000C0001F0100081F0100081F0100081F01000890
:1000D0001F010008294700081F0100081F01000830
:1000E0001F0100081F0100081F010008DFF810D0E1
:1000F00000F0C8FB0048004769500008AFF30080DB
:10010000402400200648804706480047FEE7FEE7F7
:10011000FEE7FEE7FEE7FEE7FEE7FEE7FEE7FEE7B7
:10012000D7400008ED000008202A04DB203A21FA1D
:1001300002F00021704721FA02F3D040C2F1200200
:100140009140084319467047D2B201E000F8012BF4
:10015000491EFBD270470022F6E710B513460A4647
:1001600004461946FFF7F0FF204610BDF0B480EAC0
:100170000102D40F4200B2EB410F02D20246084600
:1001800011464A0042D0C30DDDB2C1F3C752AD1AC9
:10019000202D35DAC1F3160141F4000204B15242B8
:1001A000C5F1200602FA06F12A411044B3EBD05FF4
:1001B00023D0C4B1012DA0EBC35009DCF0BC4FF03B
:1001C000004202EAC352DBB200F5000000F0F8B9C9
:1001D000400000F1807000EBC350A0F1807040EA55
:1001E000D170490009E0490841EAC071A0EBC35051
:1001F00000F50000400800EBC350F0BC00F0D7B998
:100200006142012202EB4101001BF6E7F0BC70479E
:1002100081F00041AAE780F00040A7E780EA0102F0
:1002200010B502F00043400022D04A001FD0010E5A
:1002300001EB1261C0F35600C2F3560240F4000015
:1002400042F40002A0FB022000047F39140400D015
:10025000401C50EA124001D44000491EC2B20C06B4
:1002600004EBD010401C4008802A02D003E000209C
:1002700010BD20F00100002900DA0020184310BD55
:100280002DE9FE4F81EA030404F0004421F000410F
:1002900000944FF0000B23F0004350EA01045ED0BD
:1002A00052EA03045BD0C3F30A54C1F30A552C4449
:1002B000A4F2F3340194A0FB0254C1F3130141F4FE
:1002C0008011C3F3130343F4801301FB024400FBCA
:1002D000034E840A970A44EA815447EA8357A4FBF1
:1002E000076802958D0A05FB07854FEA932C04FBEE
:1002F0000C542705029D4FEA065847EA1637B5EB1E
:1003000008056EEB070C870E920E47EA811742EA4A
:100310008312A7FB0201B6EB0B0164EB00042B0D6B
:1003200043EA0C335E1844EB1C50DA465146E7FBB7
:100330000201C5F313044FEA0B3343EA14534FEAA7
:100340000432019C43EA0603A4F10C040294009CCD
:10035000CDE900B400F071F903B0BDE8F08F0020E2
:100360000146F9E72DE9F04D81EA030404F0004B62
:1003700021F0004514464FF0000A23F0004150EAF6
:10038000050220D054EA01021DD0C5F30A570246E7
:10039000C5F31303C1F31300C1F30A5640F48015EB
:1003A00043F48013A7EB0608101BD64608F2FD386D
:1003B00073EB050002D308F1010801E092185B41DC
:1003C000B8F1000F03DA00200146BDE8F08D0020EF
:1003D0004FF48011064684460EE0171B73EB0507A9
:1003E00005D3121B63EB050306434CEA010C4908D5
:1003F0004FEA300092185B4150EA0107EDD152EA12
:10040000030012D082EA040083EA0501084305D004
:10041000101BAB4106D20122002306E000224FF060
:10042000004302E06FF0010253101AEB06004CEBA0
:10043000085110EB0A0041EB0B01BDE8F04D00F054
:10044000EDB8C10F80EAE0700844CA079623002186
:1004500000F0B6B896230022114600F0B1B80EB5F0
:1004600040F2334102910021CDE900110A460B46CA
:1004700000F0E3F803B000BD20F00040C10DC0F370
:10048000160040F400007F2901DA00207047962909
:1004900003DCC1F19601C840704796398840704727
:1004A000C1F30A5210B5C1F3130140F2FF3341F416
:1004B00080119A4201DA002010BD40F233439A4283
:1004C000A2F2334203DC5242FFF72EFE10BD9040F1
:1004D00010BD00F0004230F000400AD0C10D01F51F
:1004E0006071C0F3160042EA0151C208400711438F
:1004F0007047002001467047002801DBC0F1004032
:10050000002901DBC1F1004181427047002801DB75
:10051000C0F10040002901DBC1F100418842704771
:1005200030B50B46014600202022012409E021FAC3
:1005300002F59D4205D303FA02F5491B04FA02F5C0
:100540002844151EA2F10102F1DC30BD2DE9F05F57
:100550000546002092469B46884606468146402432
:100560001BE02846414647462246FFF7DDFD53463D
:100570005A46C01A914110D311461846224600F03F
:1005800093F92D1A67EB01084F46224601200021FE
:1005900000F08AF917EB00094E41201EA4F1010476
:1005A000DFDC484631462A464346BDE8F09F002935
:1005B000A8BF7047401C490008BF20F001007047E9
:1005C00010B4B0FA80FC00FA0CF050EA010404BF49
:1005D00010BC704749B1CCF1200421FA04F411FA9F
:1005E0000CF118BF012121430843A3EB0C01CB1DE3
:1005F0004FEA00614FEA102042BF002010BC704754
:1006000000EBC35010440029A4BF10BC7047401C2D
:10061000490008BF20F0010010BC704710B5141E3F
:1006200073F1000408DA401C41F1000192185B41AB
:100630001A4301D120F0010010BD2DE9F04D924682
:100640009B4611B1B1FA81F202E0B0FA80F2203299
:10065000904600F029F904460F4640EA0A0041EAB4
:100660000B0153465A46084313D0114653EA010082
:1006700019D0C8F140025046FFF756FD05460E4618
:1006800050465946424600F00FF9084305D0012074
:1006900004E020463946BDE8F08D0020054346EAD7
:1006A000E0762C4337430A986305E40AA0EB080080
:1006B0000022FD0A44EA47540A3002D500200146D0
:1006C000E9E7010510196941DDE9084500196941AB
:1006D000BDE8F04DA2E72DE9FE4F804681EA030018
:1006E000C00F0C46009021F0004123F00045B8EB0C
:1006F0000200A94105D24046214690461C460B46C1
:10070000024623F00040104347D0270DC7F30A00EC
:10071000C3F30A510290401A019040286BDAC3F3E8
:10072000130040F4801B0098924620B10023D2EBC6
:10073000030A63EB0B0B01985946C0F14002504687
:1007400000F0B2F806460D4650465946019A00F0B0
:10075000BAF810EB08006141002487EA115284EADC
:10076000E7731A4340D0009A62B3019A012A4FEA14
:10077000075215DC001B61EB02014FF0004202EA58
:100780000752CDE90042001C41F5801132462B464C
:10079000FFF753FF03B0BDE8F08F40462146F9E76D
:1007A000001B61EB0201001C41F5801300185B4146
:1007B0002018A2F5001747EB030140EAD570B619DF
:1007C0006D4111E06D084FEA360645EAC0754FEA03
:1007D0000752001B61EB0201001C41F58011490822
:1007E0004FEA30000019514132462B4603B0BDE8B4
:1007F000F04FFFF713BF0098012240000023D0EB19
:10080000020263EBE073009821464FEAE074B8EB14
:10081000000061EB0401E9E783F000435BE781F04E
:10082000004158E7C1F30A52C1F3130140F2FF330C
:1008300041F480119A4202DA00200146704740F2EA
:1008400033439A42A2F2334202DC5242FFF76CBCBD
:1008500000F02AB830B5041E71F1000404DB4FF03B
:100860000044404264EB0101141E73F1000405DBF7
:100870001C464FF00043524263EB0403994208BF09
:10088000904230BD064C074D06E0E06840F00103A1
:1008900094E8070098471034AC42F6D3FFF72AFCDF
:1008A000085B0008285B0008202A04DB203A00FAD5
:1008B00002F1002070479140C2F1200320FA03F3B7
:1008C000194390407047202A06DBCB17203A41FAA3
:1008D00002F043EAE07306E041FA02F3D040C2F1CD
:1008E00020029140084319467047000070B5044645
:1008F00000688168C943C90717D1816821F00101E7
:10090000816001F03DF805460AE000BF01F038F8CB
:10091000401B022804D920688068C043C00706D065
:1009200020688068C043C007F0D0002070BDA06A76
:1009300040F01000A062E06A40F00100E062012097
:1009400070BD10B50146406A826A12F0500F05D0A2
:10095000006A026BBDE8104008461047816A41F406
:100960000071816201688968C1F3424107290CD195
:10097000017B51B9816A21F480718162816AC90465
:1009800003D4816A41F00101816200F045FB10BD92
:1009900010B5406A816A41F040018162C16A41F04C
:1009A0000401C16200F03AFB10BD10B5406A00F0CE
:1009B00034FB10BDF8B50026044600960068816837
:1009C000C943C9072DD0816841F0010181601648F3
:1009D00016490068B0FBF1F000E0401E00900028CE
:1009E000FBD100F0CDFF054616E000BF00F0C8FFC8
:1009F000401B022810D920688068C043C0070BD074
:100A0000A06A40F01000A062E06A40F00100E062DD
:100A100084F824600120F8BD20688068C043C007C6
:100A2000E4D10020F8BD00001000002040420F007B
:100A300010B500224FEA020130F81130491C1A4467
:100A40006429F9DB6420B2FBF0F0FFF708FD002217
:100A5000054BFFF715FC0022044BFFF783FCFFF763
:100A60001FFD80B210BD000000A0644000A06940DE
:100A7000FEE70000014800F09DBC0000E4050020F6
:100A8000014800F097BC0000F807002030B590F84E
:100A900040500124AC40C56B6C60046863604368DF
:100AA000102B036803D099600068C26030BD9A6063
:100AB0000068C16030BD7047022000F05BBE0420BA
:100AC00000F058BE082000F055BE402000F052BE95
:100AD00072B6FEE731B500980003009000F044F9CB
:100AE00000F074F8C007FBD101220E4D140321461B
:100AF000284600F040FF00222146284600F03BFF38
:100B0000202000F025F9684600F07EF801222146F9
:100B1000284600F030FF00BF00F058F8C007FBD1B6
:100B200038BD0000000C01402DE9F74315460122B5
:100B3000114F804616033146384600F01CFF002254
:100B40003146384600F017FF032000F001F901A8F4
:100B500000F05AF8002406E0FF2000F0E5F808F85D
:100B60000400641CA4B2AC42F6D3012231463846DC
:100B700000F001FFBDE8FE83000C0140F8B5012242
:100B8000114E00241503FF2729463046009400F03B
:100B9000F2FE00222946304600F0EDFE902000F0E3
:100BA000D7F8684600F030F8384600F0BDF844EA5F
:100BB0000024384600F0B8F80443012229463046A4
:100BC00000F0D9FE2046F8BD000C014070B50122AE
:100BD0000C4E15032946304600F0CDFE0022294672
:100BE000304600F0C8FE052000F09EF8FF2000F01F
:100BF0009BF8044601222946304600F0BCFE204600
:100C000070BD0000000C01403EB500688DF8080082
:100C1000010C8DF80010010A8DF804104FF4805477
:100C2000234601226946084801F034FB234601228D
:100C300001A9054801F02EFB2346012202A9024822
:100C400001F028FB3EBD0000800600202DE9F05F8A
:100C5000C1F30B07DFF8A490C7F580540E46824617
:100C600015464FEA1138A24200D814464FEA08311F
:100C70008B464FF480524846FFF756FF002006E0AF
:100C80003A1819F80210FF2903D1401C80B2A04283
:100C9000F6D3A04227D24046FFF71CFF18A003F06E
:100CA0004BFD002007E000BF1AF80030C219401CBD
:100CB00009F8023080B2A042F6D359464FF4805270
:100CC0004FEA090000F06EF8A54213D0281BA24499
:100CD0002644002785B24FF4805408F10108A5424C
:100CE000C4D82C46C2E70BA003F026FD22463146AD
:100CF0005046E7E73046BDE8F09F00003C0C00207E
:100D000065726173696E6720736563706167650AF8
:100D10000000000077726974696E67207365637004
:100D20006167650A0000000001B582B000208DF8FF
:100D300004004FF480500090012301AA02A9034847
:100D400001F05FFB9DF804000EBD0000800600204E
:100D500001B54FF4805301226946024801F09AFA26
:100D600008BD00008006002070B501220C4D140360
:100D70002146284600F0FFFD00222146284600F0CB
:100D8000FAFD0122D102284600F0F5FD0620FFF70A
:100D9000DFFF21462846BDE87040012200F0EBBD90
:100DA000000C01402DE9F0410746C8B2C0F580743F
:100DB0000E461546A24200D814464FF480782246CB
:100DC0003146384600F00EF8A54208D0281B2744CB
:100DD000264485B24446A542F1D82C46EFE730467A
:100DE000BDE8F0812DE9F74315468046FFF7BCFFCB
:100DF0000122134F16033146384600F0BCFD002295
:100E00003146384600F0B7FD0220FFF7A1FF01A8E8
:100E1000FFF7FAFE002405E018F80400FFF784FF4E
:100E2000641CA4B2AC42F7D301223146384600F02C
:100E3000A2FD00BFFFF7CAFEC007FBD1BDE8FE83DD
:100E4000000C0140F8B500250446009590F82400F8
:100E500001280BD0012084F824002046FFF746FD2E
:100E60002046FFF7A7FD060002D050E00220F8BDA3
:100E7000A06A20F4885040F00200A062022000F036
:100E80001DFE25490968B1FBF0F0400000E0401E5E
:100E900000900028FBD12068816841F00801816042
:100EA00000F06EFD074608E000F06AFDC01B0A284E
:100EB00003D920688068000715D42068806800077F
:100EC000F2D42068816841F00401816000F058FD8F
:100ED000074612E000F054FDC01B0A280DD9206817
:100EE0008068400709D5A06A20F0020040F0100099
:100EF000A06284F824500120F8BD20688068400773
:100F0000E8D4A06A20F0020040F00100A06284F85A
:100F100024503046F8BD000010000020F8B5002431
:100F2000009490F824202546012A12D0012280F84E
:100F300024204A681F23072A0DD20668776B521EA9
:100F400002EB820293409F430B6893401F437763F9
:100F500019E00220F8BD06680D2A0AD2376BD21FAD
:100F600002EB820293409F430B6893401F43376319
:100F700009E0F76A0D3A02EB820293409F430B6847
:100F800093401F43F7620A68072306680A2A0AD3B8
:100F9000F7680A3A02EB420293409F438B68934002
:100FA0001F43F76008E0376902EB420293409F431A
:100FB0008B6893401F4337610A68102A01D0112AB9
:100FC00020D1124B02689A4217D193681B0219D4A0
:100FD000936843F4000393600968102912D10C4907
:100FE0000C4A0968B1FBF2F101EB8101490000E014
:100FF000491E00910029FBD104E0816A41F02001E3
:101000008162012480F824502046F8BD002401406C
:101010001000002040420F007047704770470000EA
:101020002DE9F0414FF0000704003D467ED0A06A54
:10103000002628B9E66284F82460204600F07EF895
:101040002046FFF753FCA16AC90600D420B1A06A6C
:1010500040F01000A06269E0A16A21F4885141F0DB
:101060000201A1626268E169237B0A4347EA430106
:101070000A43A1684FF48077B94209D0012907D00B
:101080005FF0000194F814C0BCF1010F02D00AE037
:101090003946F7E7F3B1A36A43F02003A362E36A9A
:1010A00043F00103E3622368D3F804C02CF4694CD5
:1010B0004CEA010CC3F804C021688B68DFF870C0EB
:1010C00003EA0C0313438B60A168B9420BD00129DA
:1010D00009D00CE0DFF85CC0A3690CEB43330B4391
:1010E00043F40061DFE7218A0D05A5F5801521682D
:1010F000CB6A23F470032B43CB62216889680E4BC3
:101100001940914208D1E662A16A21F0020141F042
:101110000101A162BDE8F081A06A20F0020040F068
:101120001000A062E06A40F00100E0620120F1E7F7
:10113000FDF7E1FF00E0FFFFFE0E1FFFF0B585B0F9
:10114000002506460095019502950395006819490A
:1011500088422DD11849886940F4007088618869F7
:1011600000F400700490886940F004008861886988
:10117000202700F0040004900320CDE900706946A8
:101180000E4800F003FB0F4C0D48C4E90005802019
:10119000C4E90250400020618000E561C4E9050710
:1011A000204600F0B1F908B1FFF792FC34626662A4
:1011B00005B0F0BD002401400010024000080140CD
:1011C00008000240E40500202DE9F0478946044666
:1011D0003B4900683B4F0E1D9046884201D0B84203
:1011E00007D1306810F4702F03D001252846BDE8E0
:1011F000F08794F8240001280CD0012084F8240002
:101200002046FFF7D7FB05004FF0000004D084F81C
:101210002400EBE70220EAE7A16A40F6016291436D
:1012200041F48071A1622168B94218D1326812F488
:10123000702F14D0A16A41F48011A1623168490570
:1012400005D5A16A21F4005141F48051A162A16A3F
:10125000C9040AD5E16A21F00601E16206E0A26A4A
:1012600022F48012A2624968E9E7E06284F824006F
:10127000216A15488862216A1448C862216A1448A4
:10128000086321686FF0020008602068816841F4FB
:1012900080718160216843464A464C31206A00F0E3
:1012A00061F920688168C1F342410729816803D050
:1012B00041F48011816099E741F4A001FAE7000050
:1012C000002401400028014043090008AB09000840
:1012D0009109000810B590F821100022022905D0CC
:1012E0000421816380F82020012010BD01680B6873
:1012F00023F00E030B6001680B6823F001030B6001
:1013000090F84030C46B012101FA03F3636080F868
:10131000211080F82020104610BD000010B590F874
:1013200021100024022903D00421816301243DE01F
:1013300001680A6822F00E020A6001680A6822F059
:1013400001020A601A4A0168914201D1012121E09B
:10135000174A1432914201D110211BE0144A28325D
:10136000914201D1891515E0114A3C32914201D1D7
:1013700089140FE00E4A5032914202D14FF480316D
:1013800008E00B4A6432914202D14FF4801101E02F
:101390004FF08071064A083A5160012180F821100F
:1013A000002180F82010416B01B18847204610BD14
:1013B000080002402DE9F05FC16B0C6801680B6802
:1013C000D0F840C0042202FA0CF2494DDFF824A103
:1013D000494E4A4FDFF828B1DFF828E122422CD0ED
:1013E0005A072AD50A68920603D40A6822F0040232
:1013F0000A600168A94201D1042219E0514501D1D6
:10140000402215E0B14202D14FF4806210E0B942AF
:1014100002D14FF480420BE0594502D14FF48022B3
:1014200006E0714502D14FF4800201E04FF0806286
:101430002F4908394A60C16A3BE04FF0020808FAB8
:101440000CF818EA040F4FF000094FF0010235D0F4
:101450005FEA837832D50B689B0605D40B6823F0CE
:101460000A030B6080F821200168A94201D1022201
:1014700019E0514501D1202215E0B14202D14FF4CB
:10148000007210E0B94202D14FF400520BE059450E
:1014900002D14FF4003206E0714502D14FF4001240
:1014A00001E04FF00072124908394A6080F820903C
:1014B000816A00291AD0BDE8F05F0847082505FABF
:1014C0000CF5254212D01B0710D50B6823F00E0334
:1014D0000B6090F84010C36B02FA01F1596082630F
:1014E00080F8212080F82090016BE2E7BDE8F09FB2
:1014F000080002401C00024030000240440002404C
:10150000580002406C00024030B528B308C81349A7
:1015100014221944B1FBF2F18900C16310498163BF
:10152000022141771A6843F6F0718A43D0E900142A
:101530002143D0E902452C432143046921434469F6
:101540002143846921431143196000214163012231
:1015500042770177084630BD012030BDF8FFFDBF5E
:101560000000024070B5044690F8200000250128D4
:101570000CD0012084F8200094F821600020012E76
:1015800006D084F820000225284670BD022070BDD8
:10159000022684F82160A0632068066826F0010610
:1015A00006602046FFF772FAE06A002820680168AA
:1015B00002D041F00E0106E021F004010160206834
:1015C000016841F00A0101602068016841F00101F1
:1015D0000160D9E770B5044600F0D2F90546601CF9
:1015E00002D004480078044400F0CAF9401BA0422D
:1015F000FAD370BD040000202DE9F0474E494F4C4E
:101600006FF00102096840280BD0082811D04C4D1A
:10161000022816D00121284600F0A8F9002869D038
:101620006BE0032020700A61434801F0BFF845A039
:1016300073E0042020700A61BDE8F0473E4801F0E5
:10164000B5B8022020700121284600F08FF901264C
:1016500018B1A07808B9607840B10121284600F09F
:1016600085F948B9A07838B9607828B902212846A8
:1016700000F07CF900B9A6700121A946284600F0C7
:1016800075F9DFF8B880002740F2E63508F1040864
:1016900020B9A078012801D16078D8B1012148464D
:1016A00000F064F9002844D0A078012841D1607886
:1016B00000283ED16D1EFDD20221484600F056F9A9
:1016C000002836D0E078401EE070A77088F80260ED
:1016D0001EA022E06D1EFDD20221484600F046F910
:1016E000002826D0E078401CE070A77088F80360DE
:1016F00018A012E06078012813D00121284600F0DC
:1017000035F9002815D06078012812D102F0DEF8F2
:101710000121084602F0F0F810A0BDE8F04703F000
:101720000BB802F0D3F80021012002F0E5F80EA07A
:10173000F3E7BDE8F08700006807002014000020F0
:1017400000080140456E7465720A00006C6566749D
:101750000A00000072696768740A00006C656674AC
:101760005F4D460A0000000072696768745F4D466D
:101770000A000000044910B50A68024202D008605D
:10178000FFF73AFF10BD0000140401402DE9F84FA7
:10179000DFF8B8910024A9F1040B23460F2709F1C3
:1017A000040AABF1040EC9E00125A5402A40AA4273
:1017B0007DD1674ED1F804C0ACEB0608B44532D0F9
:1017C00014DCBCF1030F3AD009DCBCF1000F2AD0C5
:1017D000BCF1010F1CD0BCF1020F31D11DE0BCF1F6
:1017E000110F17D0BCF1120F2AD119E0B8F5881FDC
:1017F00019D006DCB8F5803F15D0B8F5801F1FD191
:1018000011E0B8F5001F0ED0B8F5041F18D10AE09A
:10181000CB6815E0CB681B1D12E0CB6808330FE0E6
:10182000CB680C330CE08B682BB1012B4FF0080315
:1018300003D0456104E0042302E0056100E00023D9
:10184000FF2A01D8064601E000F104064FEA8405AC
:1018500001D9A5F12005D6F8008007FA05FC28EA91
:101860000C0803FA05F548EA0508C6F800804D683B
:10187000ED0062D5374DAE6946F00106AE61AD6947
:1018800024F0030605F001050095334D06EB050C29
:10189000DCF80850A607360F07FA06F825EA08050F
:1018A000DFF8B880404503D14FF0000817E044E06E
:1018B000DFF8AC80404502D14FF001080FE0DFF8BF
:1018C000A480404502D14FF0020808E0DFF898807C
:1018D000404502D14FF0030801E04FF0040808FA38
:1018E00006F848EA0508CCF808804D68D9F8006089
:1018F000ED024D4601D5164300E096432E604D683B
:10190000DAF80060AD02554601D5164300E0964373
:101910002E604D68DBF80060AD035D4601D51643CF
:1019200000E096432E604D68DEF80060ED037546DA
:1019300001D5164300E096432E60641C0D682A46CC
:10194000E5407FF431AFBDE8F88F000008040140A6
:10195000000011100010024000000140000801408A
:10196000000C014000100140001401408068084054
:1019700000D0012070470AB1016170470904FBE7FC
:101980000148806870470000040000200248816818
:10199000027811448160704704000020074810B5A8
:1019A000016841F010010160032000F075F80F207C
:1019B00000F006F800F024F8002010BD00200240DE
:1019C00070B50D4D04464FF47A712878B1FBF0F0F4
:1019D0000A490968B1FBF0F000F00AFE48B9102C82
:1019E00007D200222146501E00F036F800206C601D
:1019F00070BD012070BD0000040000201000002018
:101A00000C4808B5816941F001018161816901F0EB
:101A100001010091C16941F08051C161C06900F0CC
:101A2000805000900448416821F0E06141F000716D
:101A3000416008BD0010024000000140002809DBA1
:101A400000F01F02012191404009800000F1E020D8
:101A5000C0F8001170470000F0B40E4B1B680C4634
:101A6000C3F30223C3F10705042D00D90425191D72
:101A7000072901D2002300E0DB1E012606FA05F14A
:101A8000491E214099409E40761E16403143F0BCCD
:101A900002F074BE0CED00E0064900F00702086891
:101AA0004FF6FF03184040EA0220034A1043086043
:101AB000704700000CED00E00000FA0510B501468B
:101AC0000020234C012922D0022939D010291DD110
:101AD00061682268D20119D51E48C1F38342C90347
:101AE000805C0AD561681B4AC1F34041921E515C7B
:101AF000194AB2FBF1F1484301E0184948436168D3
:101B0000490203D440000321B0FBF1F010BD226A6A
:101B1000C2F30121012903D1920701D5C80310BDE9
:101B2000022905D1626A920702D549F6404010BDEC
:101B30000329FCD121688903F9D54FF2244010BD57
:101B400000F02AF96168C1F38131491C4900DBE7E3
:101B5000001002404052000800127A0000093D00C7
:101B60002DE9F84305460078354CC00754D0E069AC
:101B70000026C00008D4E06940F08050E061E069D0
:101B8000012600F0805000902E480168C90512D44B
:101B90000168804641F480710160FFF7F1FE07465D
:101BA00005E000BFFFF7ECFEC01B642823D8D8F87F
:101BB0000000C005F6D5206A10F4407021D0A98835
:101BC00001F4407181421CD0206A1F49012220F497
:101BD00040700A6000220A602062C00711D0FFF73F
:101BE000CFFE074641F2883808E000BFFFF7C8FE85
:101BF000C11B414502D90320BDE8F883206A800754
:101C0000F4D5206A696820F44070084320621EB150
:101C1000E06920F08050E0612878800705D5606891
:101C2000A96820F44040084360602878C00605D5C4
:101C30006068E96820F48000084360600020DBE70A
:101C40000010024000700040400442422DE9F0477D
:101C50000F46050061D0434E306800F00700B842DF
:101C600009D2306820F0070038433060306800F057
:101C70000700B84251D128683B4C810712D5400774
:101C800003D5606840F4E06060602878000703D501
:101C9000606840F4605060606068A96820F0F000FF
:101CA000084360602878C00728D06868012810D0F1
:101CB0002168022810D0890700292EDA616821F0F6
:101CC000030101436160FFF75BFE804641F2883902
:101CD0000DE021688903EFE78901EDE7FFF750FE8A
:101CE000A0EB0801494502D90320BDE8F0876068F0
:101CF000696800F00C00B0EB810FEFD1306800F0A4
:101D00000700B8420BD9306820F007003843306034
:101D1000306800F00700B84201D00120E5E72878DC
:101D2000400705D56068E96820F4E060084360601A
:101D30002878000706D56068296920F4605040EAD9
:101D4000C100606000F038F86168084AC1F303110F
:101D5000515CC8400649086006480068FFF730FE3D
:101D60000020C2E70020024000100240505200084C
:101D70001000002008000020044805490068496858
:101D8000044AC1F30221515CC84070471000002092
:101D90000010024060520008044805490068496884
:101DA000044AC1F3C221515CC840704710000020B2
:101DB00000100240605200080E4A51680E4801F0BF
:101DC0000C03042B11D0082B0FD10C48C1F3834313
:101DD000C903C05C0AD55168084AC1F34041921E4C
:101DE000515C054A5043B0FBF1F070470449484349
:101DF000704700000010024000127A002E520008C6
:101E000000093D002DE9F84F040070D02078C04D46
:101E1000C00749D06868C0F38100012807D068680E
:101E2000C0F38100022809D16868C00306D528687C
:101E3000800339D560680028E7D035E06068B0F5E8
:101E4000803F0BD010B1B0F5A02F11D0286820F43E
:101E500080302860286820F4802002E0286840F460
:101E600080302860606890B1FFF78AFD06460AE07E
:101E7000286840F480202860F0E700BFFFF780FD6D
:101E8000801B642873D828688003F7D50CE0FFF71F
:101E900077FD064605E000BFFFF772FD801B642852
:101EA000F0D828688003F7D420789A4E80074FF046
:101EB00001094FF0000839D5686810F00C0F07D001
:101EC0006868C0F38100022809D16868C00306D49D
:101ED0002868800714D52069012808D110E02069FE
:101EE000B0B1C6F80090FFF74BFD074605E00AE1E8
:101EF000FFF746FDC01B0228C4D828688007F7D525
:101F00002868616920F0F80040EAC10028600DE00F
:101F1000C6F80080FFF734FD074604E0FFF730FD08
:101F2000C01B022823D828688007F7D42078000730
:101F30002CD57948A169D9B1C0F80090FFF720FDF0
:101F4000074604E0FFF71CFDC01B02280FD8686A93
:101F50008007F7D571484FF4FA510068B0FBF1F0F3
:101F6000009000BF0098411E0091FAD20EE080E080
:101F7000C0F80080FFF704FD074604E0FFF700FD0E
:101F8000C01B022875D8686A8007F7D420784007FC
:101F900060D5E8690027C00008D4E86940F08050A7
:101FA000E861E869012700F0805000905C48016812
:101FB000C90513D40168834641F480710160FFF7BD
:101FC000DFFC824606E000BFFFF7DAFCA0EB0A0068
:101FD00064284ED8DBF80000C005F5D5E06801287C
:101FE0000AD008B1052813D0286A20F00100286221
:101FF000286A20F0040002E0286A40F0010028620C
:10200000E06841F2883B98B1FFF7BAFC82460BE0EA
:10201000286A40F004002862EEE700BFFFF7B0FC3A
:10202000A0EB0A0159455AD8286A8007F6D50CE07A
:10203000FFF7A6FC824605E0FFF7A2FCA0EB0A0131
:1020400059454CD8286A8007F6D41FB1E86920F0BA
:102050008050E861E06988B36968C1F381010229B1
:1020600044D00228C6F8608004D0FFF789FC0446FB
:1020700038E034E0FFF784FC074604E0FFF780FC1B
:10208000C01B02282BD828688001F7D4206AB0F53D
:10209000803F05D16868A16820F40030084368607B
:1020A000D4E908010843696821F4741108436860A1
:1020B000C6F86090FFF764FC044606E025E000BF28
:1020C000FFF75EFC001B022809D828688001F7D5BD
:1020D0001BE000BFFFF754FC001B022802D90320BD
:1020E000BDE8F88F28688001F4D40EE00128F7D00D
:1020F0006868226A00F48031914204D1616A00F478
:102100007010884201D00120EAE70020E8E70000D3
:1021100000100240000042428004424210000020B1
:102120000070004070B5040009D0606A002540B11D
:1021300025616561A56294F8510040B10CE0012071
:1021400070BD6068B0F5827FF4D0E561F2E784F895
:102150005050204600F040F8022084F851002068DA
:10216000016821F040010160A088218900F482709B
:1021700001F404410843A18901F400610843217C72
:1021800001F002010843217D01F001010843218B88
:1021900001F400710843217F01F03801084394F8ED
:1021A000201001F080010843218D01F40051084303
:1021B00021680860A069042101EA10402168486094
:1021C0002068C16921F40061C1616565012084F85E
:1021D0005100002070BD000070B586B0002400944E
:1021E000019402940394264E056826490222032393
:1021F0002548B5421FD18C6944F480548C618C69A8
:1022000004F4805404948C6944F008048C61896956
:10221000039301F0080104912821CDE900126946D9
:10222000FFF7B4FA1948416841F0E06141F001015B
:10223000416006B070BD164EB542FAD1CD6945F485
:102240008045CD61CD6905F4804504958D6945F0E3
:1022500008058D618969039301F0080104914FF429
:102260002041CDE9001269460546FFF78FFA301488
:10227000CDE90004694628460294FFF787FAD8E7BB
:102280000030014000100240000C014000000140FD
:10229000003800402DE9F84F044690F85000002621
:1022A000984615468A4601280CD0012784F85070BC
:1022B000FFF766FB814694F85100B346012804D02D
:1022C00002269AE00220BDE8F88FBAF1000F6FD025
:1022D000002D6DD0032084F85100C4F854B0C4F828
:1022E00030A0A586E586C4F838B0A4F83CB0A4F8C0
:1022F0003EB0C4F844B0C4F840B0A068B0F5004F98
:1023000009D12068016821F040010160206801685E
:1023100041F48041016020680168490603D40168E6
:1023200041F040010160E068B0F5006F606803D0E3
:1023300058B3012D29D049E008B1012D1FD1206BE0
:1023400021680088C86006E020688168890709D58F
:10235000216B0988C160206B801C2063E08E401EC9
:10236000E0860CE0FFF70CFBA0EB0901414503D32D
:10237000B8F1FF3F03D006E0B8F1000F03D0E08EC4
:102380000028E1D125E0032635E0206B21680078A4
:10239000087306E02068816889070AD5216B0978EF
:1023A0000173206B401C2063E08E401EE0860DE030
:1023B0001FE0FFF7E5FAA0EB0901414503D3B8F1AF
:1023C000FF3F03D0DFE7B8F1000FDCD0E08E00283C
:1023D000E0D14A464146204601F0D1FD08B1202017
:1023E0006065A06818B92068C16880680090606D59
:1023F00008B1012601E084F8517084F850B03046ED
:1024000061E72DE9FF4F81B0044690F850000026A7
:102410000E9F1D4693464FF0010901280FD04FF043
:10242000010A84F850A0FFF7ABFA804694F85100F7
:10243000616801280DD0B1F5827F08D103E0022048
:1024400005B0BDE8F08FA16809B9042801D00226C3
:10245000C9E00298002865D0BBF1000FFBD0002D29
:10246000F9D094F85100042802D0052084F85100D6
:1024700000206065C4F838B0E587A587029921631C
:10248000E586A5862064606420680168490603D457
:10249000016841F040010160E068B0F5006F6068DC
:1024A00003D0F0B3012D47D081E008B1012D3CD11C
:1024B000206B21680088C860206B801C2063E08E40
:1024C000401EE08631E02068816889070FD5E18EE3
:1024D00069B1B9F1010F0AD1216B0988C160206B84
:1024E000801C2063E08E401EE0864FF000092068CB
:1024F0008168C9070CD0E18F51B1C068A16B088019
:10250000A06B801CA063E08F401EE0874FF00109A4
:10251000FFF736FAA0EB0800B84206D3781C04D0C7
:1025200001E009E05BE003265BE0E08E0028CAD111
:10253000E08F0028C7D140E0206B21680078087345
:10254000206B401C2063E08E401EE0862FE0206858
:10255000816889070FD5E18E69B1B9F1010F0AD100
:10256000216B09780173206B401C2063E08E401EB4
:10257000E0864FF0000920688168C9070CD0E18F20
:1025800051B1C068A16B0870A06B401CA063E08FC4
:10259000401EE0874FF00109FFF7F2F9A0EB0800B9
:1025A000B84202D3781C02D0BAE7002FB8D0E08E30
:1025B0000028CCD1E08F0028C9D1424639462046B8
:1025C00001F0DDFC18B10126202060650BE0A06859
:1025D00018B92068C16880680090606D08B1012654
:1025E00001E084F851A0002084F85000304627E72D
:1025F00010B5401EB0F1807F01D3012010BD4FF017
:10260000E02460610F21601702F0B8F80020A0619B
:1026100007202061002010BD7047704710B590F86A
:102620003C20012A22D0012280F83C20CA688C6814
:1026300022F4407222434C6822F4806222430C68E8
:1026400022F4006222430C6922F4805222434C6936
:1026500022F400522243C969002322F480420A4333
:1026600001684A6480F83C30002010BD022010BD93
:1026700070B590F83C20012A26D0012480F83C4017
:10268000022280F83D2003685A689D6822F0700697
:102690000A6832435A600D4B02689A4208D0B2F180
:1026A000804F05D00A4B9A4202D00A4B9A4204D17D
:1026B000496825F080031943916080F83D4000216E
:1026C00080F83C10084670BD022070BD002C01400F
:1026D000000400400008004010B5040003D094F846
:1026E0003D0010B107E0012010BD002084F83C003F
:1026F000204600F01FF8022084F83D00211D2068CC
:1027000001F0F6FC012084F8460084F83E0084F8CD
:102710003F0084F8400084F8410084F8420084F8C7
:10272000430084F8440084F8450084F83D0000200C
:1027300010BD000008B51A4A01681A48914208D134
:10274000816941F400618161806900F4006000905A
:1027500008BDB1F1804F14D0134A9142F8D1C1693C
:1027600041F00201C161C069002200F00200009046
:1027700001211D20FFF770F91D20BDE80840FFF77B
:102780005DB9C16941F00101C161C069002200F079
:102790000100009003211C20FFF75EF91C20ECE7EC
:1027A000002C0140001002400004004090F83D1051
:1027B000012901D001207047022180F83D100168F5
:1027C000CA6842F00102CA6000680B49884208D01A
:1027D000B0F1804F05D00949884202D008498842AB
:1027E00004D1816801F00701062903D0016841F096
:1027F0000101016000207047002C014000040040EE
:10280000000800400168CA6822F00102CA6001683D
:102810000A6A41F211131A4207D10A6A9B101A423E
:1028200003D10A6822F001020A60012180F83D10FC
:102830000020704770B5044690F83C000025012840
:1028400017D0012684F83C60022084F83D002068FF
:10285000826822F0770222F47F4282600868502862
:1028600038D00DDC20284FD005DC90B3102811D1D2
:102870004AE0022070BD302846D040280AD13BE013
:1028800060282FD070280DD0B0F5805F03D0B0F550
:10289000005F12D0012584F83D60002084F83C00E0
:1028A000284670BDCB68D1E90121206801F063FCA6
:1028B0002068816841F0770109E0CB68D1E9012106
:1028C000206801F058FC2068816841F480418160F3
:1028D000E1E719E0CA684968206801F001FD50216C
:1028E000206806E0CA684968206801F00AFD602196
:1028F000206801F04AFCCEE7CA684968206801F008
:10290000EFFC40212068F4E7226801461046F0E71A
:10291000704770B50446006801694FF00005C9436F
:10292000890715D4C168C943890711D4E91E01611B
:1029300001202077206880698007204602D0FFF7B9
:10294000E7FF04E000F0C0F8204600F052F92577D8
:1029500020680169C943490717D4C168C9434907B9
:1029600013D46FF004010161022020772068806990
:1029700010F4407F204602D0FFF7CAFF04E000F0C9
:10298000A3F8204600F035F9257720680169C9438E
:10299000090716D4C168C943090712D46FF00801AA
:1029A0000161042020772068C0698007204602D09A
:1029B000FFF7AEFF04E000F087F8204600F019F9B9
:1029C000257720680169C943C90617D4C168C9437E
:1029D000C90613D46FF01001016108202077206828
:1029E000C06910F4407F204602D0FFF791FF04E059
:1029F00000F06AF8204600F0FCF8257720680169AD
:102A0000C943C90708D1C168C943C90704D1891E90
:102A10000161204600F074F920680169C943090684
:102A200009D4C168C943090605D46FF0800101616A
:102A30002046FFF7F1FD20680169C943490609D422
:102A4000C168C943490605D46FF0400101612046C1
:102A500000F07EF920680169C94389060BD4C1687A
:102A6000C943890607D46FF0200101612046BDE803
:102A70007040FFF7D2BD70BD00B585B00021009158
:102A800001910291039100680C49884213D10C48CE
:102A9000816941F0040181618069694600F00400A8
:102AA00004904FF480700090022001900320039066
:102AB0000448FEF76BFE05B000BD0000002C01408D
:102AC0000010024000080140704770B5044690F8BD
:102AD0003C0000260D4601280FD0012084F83C0060
:102AE0006AB1042A1DD0082A2FD00C2A3FD0012613
:102AF000002084F83C00304670BD022070BD206884
:102B000001F04CFB2068816941F008018161206877
:102B1000816921F004018161206881692A6911437A
:102B200011E0206801F062FB2068816941F40061D6
:102B300081612068816921F48061816120688169F7
:102B40002A6941EA02218161D2E7206801F07AFB1B
:102B50002068C16941F00801C1612068C16921F0A4
:102B60000401C1612068C1692A69114311E020682C
:102B700001F094FB2068C16941F40061C1612068E3
:102B8000C16921F48061C1612068C1692A6941EA93
:102B90000221C161ACE710B5040003D094F83D00F8
:102BA00010B107E0012010BD002084F83C00204651
:102BB00000F01EF8022084F83D00211D206801F07D
:102BC00097FA012084F8460084F83E0084F83F001C
:102BD00084F8400084F8410084F8420084F84300FF
:102BE00084F8440084F8450084F83D00002010BDBE
:102BF0007047704710B50446022249B104290ED02F
:102C0000082913D094F84100012816D0012010BDE6
:102C100094F83E000128F9D184F83E200FE094F8A2
:102C20003F000128F2D184F83F2008E094F84000EA
:102C30000128EBD184F8402001E084F841200122F2
:102C4000206801F08BFA0F492068884203D1426C5A
:102C500042F4004242642068884208D0B0F1804FBC
:102C600005D00949884202D00849884204D18168C8
:102C700001F00701062903D0016841F0010101605C
:102C8000002010BD002C014000040040000800405E
:102C900030B504460D460068002201F05FFA174B7C
:102CA00041F2111120688A10984209D1036A0B423F
:102CB00006D1036A134203D1436C23F400434364F7
:102CC0002068036A0B4206D1016A114203D10168F0
:102CD00021F00101016001203DB1042D08D0082D33
:102CE00009D084F84100002030BD84F83E00FAE7A6
:102CF00084F83F00F7E784F84000F4E7002C014037
:102D00000F4A10B56FF00101904208D110680161BF
:102D1000BDE8104064220B490B48FEF755BA0B4C36
:102D2000A0420BD1206801612046FFF76BFD2168AE
:102D300000204862BDE8104000F06ABA10BD0000F3
:102D400020070020EC000020B405002068070020C8
:102D50007047704770470000F8B50168044608687E
:102D6000CA684B6910F00F0F4FF0000559D003F0FF
:102D7000010602F49077374365D0C10705D0D1052D
:102D800003D5616C41F001016164410705D5D907A4
:102D900003D0616C41F002016164810705D5D90758
:102DA00003D0616C41F004016164010707D502F0B2
:102DB0002001314303D0616C41F008016164616C12
:102DC00000293AD0800604D5900602D5204601F0AD
:102DD0005EFB20684069616CC0F38010090700D475
:102DE00060B3204601F01EFB20684069400621D5F3
:102DF0002068143050E8001F21F0400140E8001224
:102E0000002AF5D1E06BA8B16D494163E06BFEF794
:102E100085FA002811D0E06B416B01B0BDE8F040AD
:102E2000084783060FD593060DD52046BDE8F84028
:102E300001F02DBB2046FFF78DFFF8BD2046FFF7C0
:102E400089FF6564F8BD266B2023012E7CD1C60660
:102E50007AD5D60678D508684868009048694FF05A
:102E60000206400640D5E16B086840680004000C8B
:102E7000E8D0A28D8242E5D9E085886920282DD04E
:102E800020680C3050E8001F21F4807140E80012E7
:102E9000002AF5D12068143050E8001F21F001010C
:102EA00040E80012002AF5D12068143050E8001FD5
:102EB00021F0400140E80012002AF5D184F84230A8
:102EC000256320680C3050E8001F21F0100140E815
:102ED0000012002AF5D1E06BFEF7FCF96663A08DC5
:102EE000E18D401A81B22AE0A08DE18D401A81B2B5
:102EF000E08D0028A6D00029A4D022680C3252E828
:102F0000000F20F4907042E80007002FF5D12068F0
:102F1000143050E8002F22F0010240E80027002F73
:102F2000F5D184F84230256320680C3050E8002F3A
:102F300022F0100240E80023002BF5D16663204602
:102F4000FFF707FFF8BDFFE705062BD5150629D5C6
:102F500094F841002128F5D1A068B0F5805F01D137
:102F60002069B0B1206A411C216221680078486064
:102F7000E08C401E0004000CE084E3D12068C168AE
:102F800021F08001C1602068C16841F04001C1604A
:102F9000D8E7206A0088C0F308004860206A801CD7
:102FA0002062E5E74006CDD55006CBD5CA6820465D
:102FB00022F04002CA6084F8413000F003F9C1E712
:102FC0002743000870B5040004D094F841000025A0
:102FD00010B106E0012070BD84F84050204600F09A
:102FE00023F8242084F841002068C16821F40051AE
:102FF000C160204601F0ACFA2068016921F49041DB
:1030000001612068416921F02A0141612068C1689D
:1030100041F40051C1606564202084F8410084F8C7
:1030200042006563002070BD70B586B0002506467D
:10303000009501950295039500682349884240D187
:103040002249886940F480408861886900F48040A2
:103050000490886940F00400886188691C4C00F085
:103060000400049048150090022001900320039072
:1030700069462046FEF78AFB2015CDE90005694622
:1030800020460295FEF782FB134C1248C4E9000566
:103090008020C4E9025020202561C4E90550C00108
:1030A000E0612046FEF730FA08B1FDF711FDF46348
:1030B0000022114625206662FEF7CEFC2520FEF791
:1030C000BDFC06B070BD0000003801400010024099
:1030D0000008014058000240F807002090F84230F4
:1030E000202B01D00220704721B11AB100230363C5
:1030F00001F08ABA012070470068094988420DD161
:10310000084810F8011B10F8012B090441EA0221BC
:1031100010F8012B11430122FDF798BD7047000004
:10312000003801400000002070472DE9F8430446B4
:1031300090F841001F4616460D46202802D0022076
:10314000BDE8F8837DB176B100206064212084F869
:103150004100FEF715FCA6848046E684A068B0F521
:10316000805F02D003E00120EAE7206910B12E461B
:1031700000250EE000260CE08021204601F08CFAAC
:10318000A0B9AEB116F8010B21684860E08C401E72
:10319000E084E08C43464FF0000200970028EBD11A
:1031A0004FF04001204601F077FA30B10320C7E725
:1031B00035F8020BC0F30800E6E7202084F8410050
:1031C0000020BDE77047FEE70448417819B10021AF
:1031D0004170012070470020704700001800002057
:1031E000064810B5017831B10021017004A001F04A
:1031F000A3FA012010BD002010BD0000180000201F
:103200003131313131313131313131313131000010
:103210002DE9F041DFF83C8040214046FEF7A6FB57
:103220000D4E01270025341F10B92078032805D042
:1032300008214046FEF79AFB10B104E0377007E022
:103240002078042803D035707570BDE8F081777060
:103250002570FAE700080140180000200448817832
:1032600019B10021817001207047002070470000D3
:10327000180000200448C17819B10021C170012054
:10328000704700207047000018000020014800F03F
:103290000FB80000C0000020014800F009B800008D
:1032A000A0000020014800F003B80000400000200A
:1032B0002DE9F047012500248046264601E0761CD2
:1032C00076B258F8360000782E28F8D1042001F0A4
:1032D00069FF28B108EBC5004068002841D080474D
:1032E000052001F05FFF00283BD1072001F05AFFC5
:1032F00040B2A8B12118284445B24CB2B54200DD15
:103300003546002D00DA0025032C00DD0324B442ED
:1033100000DD3446AC4200DD2C46002C00DA0024EF
:10332000281B4FFA80F9012001F03CFF5FF00007F5
:1033300009EB0700B0420BDC02213A0758F83030A5
:10334000120E084601F02EFF7F1CFFB2032FEFD9AB
:103350002007010E032001F025FF002001F022FFCD
:10336000B4E7BDE8F08700000148FFF7A1BF000007
:10337000780000203EB500211148009101910F4ACC
:103380000291026001248160047301754FF4602290
:103390000461C2614160FDF743FE08B1FDF798FB8F
:1033A0000520CDE900040720029069460448FDF796
:1033B000B5FD002801D0FDF78BFB3EBD0024014088
:1033C000B40500200D4808B5416941F00101416193
:1033D0004069002200F00100009011460B20FEF72A
:1033E0003BFB0B20FEF72AFB002211460F20FEF7C5
:1033F00033FBBDE808400F20FEF720BB0010024061
:103400002DE9F04385B000254A48009501950295C5
:103410000395816941F020018161816901F02001FA
:103420000491816941F004018161816901F0040125
:103430000491816941F00801816180693E4F00F08B
:1034400008000490002210213846FEF794FADFF8B5
:10345000EC90002241F6D0014846FEF78CFA012498
:10346000CDE90045694638460294FEF78FF90226F9
:1034700033480096CDE9010469463846FEF786F9DF
:103480004C2000902F48CDE9010469463846FEF7EC
:103490007DF94FF01008CDE9008402946946384662
:1034A0000394FEF773F9E002CDE90004CDE902468A
:1034B00069464846FEF76AF92003CDE90004032770
:1034C000CDE9024769464846FEF760F901AACDF802
:1034D000008082E8B00069464846FEF757F9C020F0
:1034E0008DE8710069464846FEF750F90022022136
:1034F0000720FEF7B1FA0720FEF7A0FA002202210A
:103500000820FEF7A9FA0820FEF798FA0022022107
:103510000920FEF7A1FA0920FEF790FA0022022105
:103520001720FEF799FA1720FEF788FA05B0BDE8D4
:10353000F08300000010024000080140000C014030
:1035400000003110000021100F4810B50D49016036
:103550004FF48271416000218160C1604FF40072BC
:103560000161C0E90512C1610162416281620A2103
:10357000C162FEF7D7FD002803D0BDE81040FDF77B
:10358000A7BA10BD00300140280600200F4810B532
:103590000D4901604FF48271416000218160C1607A
:1035A0004FF400720161C0E90512C161016241621C
:1035B00081620A21C162FEF7B5FD002803D0BDE893
:1035C0001040FDF785BA10BD00380040800600208D
:1035D00010B596B000240F94109411941294139483
:1035E0001C2108A81494FCF7B6FD20216846FCF7BE
:1035F000B2FD2A48284901600921C0E9011441F6B9
:103600001F41C0E903148021C0E90541FFF764F8B8
:1036100008B1FDF75DFA4FF480500F900FA91F48D5
:10362000FFF708F908B1FDF753FA1C48FFF7B3FAA2
:1036300008B1FDF74DFA139413A918481494FFF735
:1036400017F808B1FDF744FA602008904FF4616064
:10365000CDE909040B940C940D94002208A90F489D
:103660000E94FFF732FA08B1FDF732FA00944FF4E6
:103670000050CDE904400294019403946946074840
:103680000794FEF7CBFF08B1FDF722FA0348FFF7D6
:10369000F3F916B010BD0000002C0140D806002040
:1036A00010B586B000241748009401940294039446
:1036B00004944FF080410594016041F61F41C0E938
:1036C000011442F20F71C0E903148461FFF704F89A
:1036D00008B1FDF7FDF94FF48050009069460948A4
:1036E000FFF7A8F808B1FDF7F3F9049404A9054819
:1036F0000594FEF7BDFF002801D0FDF7E9F906B0FB
:1037000010BD00002007002010B586B00024184826
:103710000094019402940394049414490594016064
:1037200041F61F41C0E9011440F2E731C0E903143A
:1037300080218161FEF7D0FF08B1FDF7C9F94FF490
:103740008050009069460A48FFF774F808B1FDF709
:10375000BFF9049404A906480594FEF789FF0028E0
:1037600001D0FDF7B5F906B010BD0000000400401F
:10377000680700200C4810B50A4901604FF4E13198
:103780004160002181600C22C160C0E904128161A6
:10379000C161FFF717FC002803D0BDE81040FDF71A
:1037A00097B910BD00380140B0070020FEE710B502
:1037B000FFF754FD08B1012010BDFFF75BFD0028A5
:1037C000FAD04FF0FF3010BD70B54FF07E56FCF7C9
:1037D00038FE394C05466168FCF78EFE1BD26068E6
:1037E000FCF777FE02460B4634A000F0A5FF284602
:1037F00065682946FCF70FFD2169FCF70FFD31468E
:10380000FCF7B4FCFCF738FEC0B2FCF723FE2946F7
:10381000FCF701FD1FE028466168FCF777FE32D215
:103820006068FCF756FE02460B4624A000F084FFB9
:10383000284665682946FCF7EBFC2169FCF7EEFC9D
:103840003146FCF793FCFCF717FEC0B2FCF702FE12
:103850002946FCF78BFC06466060E068FCF70CFE2E
:10386000C5B2A068FCF708FEC4B23046FCF704FEFF
:10387000C1B22B462246002000F08EF9BDE8704010
:103880001420FDF7A7BE28466168FCF735FE12D16B
:10389000E068FCF7F1FDC6B2A068FCF7EDFDC5B22B
:1038A0006068FCF7E9FD33462A46BDE87040C1B2C6
:1038B000002000F071B970BD2000002063757273A4
:1038C0006F725F6C6173743D25640A001FB500213F
:1038D0000748FFF7DDF94FF4807000900120019058
:1038E0000220039069460348FDF750FF1FBD00000A
:1038F000D8060020000801402DE9F041104D064691
:1039000011B1012902D006E0002200E001221021BD
:103910002846FEF730F800244FF480770AE00122B1
:1039200039462846FEF727F8002239462846FEF792
:1039300022F8641CB442F2D30120BDE8F0810000FB
:1039400000080140FEE770B5002404F1B000C0B2E9
:10395000002100F0EDFA0021084600F0E9FA00210C
:10396000102000F0E5FA0025FF21002000F0E0FA29
:103970006D1CEDB2802DF7D3641CE4B2082CE4D3A7
:1039800070BD2DE9F04798469246074600260D4641
:10399000DDF8209011E054460BE02946204600F067
:1039A0003FFA19F80600FF21761C00F0C1FA641EE8
:1039B000E4B2BC42F1D86D1CEDB24545EBD3BDE895
:1039C000F087000010B50021074C0A46002004EBE8
:1039D000C1131A54401CC0B28028FAD3491CC9B282
:1039E0000829F3D310BD00003C1C0020F0B57F284F
:1039F0001ED83F291CD80F4C01258618CA080B4435
:103A000004EBC21212E001F00707044605FA07F7BB
:103A100008E000BF12F804C02CEA070C02F804C04A
:103A2000641CE4B2A642F5D8491CC9B28B42EAD85C
:103A3000F0BD00003C1C00202DE9F0410B4F00259B
:103A4000002407EBC5162946204600F0E9F9305D51
:103A5000FF2100F06DFA641CE4B2802CF3D36D1CDE
:103A6000EDB2082DECD3BDE8F08100003C1C002035
:103A70002DE9F04F1E4614460D468246DDF824B06F
:103A8000FFF7B4FFA819EA08401EC11700EB5170F8
:103A9000012101EBE000C3B205F007051046DFF895
:103AA0007CE036E0002130E0904214D0861A761E89
:103AB00066430BEB01080EEBC01901EB0A0716F881
:103AC000086019F807C0C5F1080826FA08F64CEA9C
:103AD000060C09F807C015B15E1EB04213D0A0EB6A
:103AE000020C0CFB04FC0BEB01080EEBC01901EB04
:103AF0000A061CF808C019F806700CFA05FC47EA1B
:103B00000C0709F80670491CC9B2A142CCD3401C6D
:103B1000C0B29842C6D3BDE8F08F00003C1C002024
:103B20002DE9F8430D46804600244FF480670E4E81
:103B300016E000BFFFF754FB012813D008EB8421E7
:103B40003A460948FCF7F0FF002108238022084686
:103B50000096FFF716FF0A20FDF73CFD641CA4B297
:103B6000AC42E7D3BDE8F8833C1C00200FB470B52D
:103B700088B014460D46064610AA68460F9900F014
:103B8000EBFD6B4622462946304600F055F808B05A
:103B900070BC5DF814FB0000F0B57F282AD83F29DF
:103BA00028D88418802C02D9C0F18002D2B2CC1857
:103BB000402C02D9C1F14003DBB20126DFF838E026
:103BC00087180B4414E001F0070206FA02F5CA0850
:103BD00004460EEBC21207E012F804C08CEA050C92
:103BE00002F804C0641CE4B2A742F5D8491CC9B26B
:103BF0008B42E8D8F0BD00003C1C002008B5102B1B
:103C00000DD0082B0AD10A4B02EB420203EB420211
:103C1000C03A009208230622FFF72AFF08BD054B91
:103C200003EB0212A2F50072102300920822F3E7C0
:103C300068520008905400082DE9F04700241F4600
:103C4000914605460E46082A02D00820804624E008
:103C50000620FBE70A2805D1002506EB0900641CB5
:103C6000C6B2E4B205EB0800802805D9002506EBB2
:103C70000900641CC6B2E4B23A5D7E2A03D909A0E9
:103C800000F05AFD09E04B4631462846FFF7B6FFE3
:103C9000641C05EB0800E4B2C5B2385D0028D9D138
:103CA000BDE8F0876E6F204368696E657365206EAE
:103CB0006F770A002DE9F843114E0D4680464FF408
:103CC0008067002416E000BFFFF78AFA012814D0AD
:103CD00008EB84213A460A48FCF726FF0021082316
:103CE000802208460096FFF74CFE0A20FDF772FC82
:103CF000641CA4B2AC42E4D2E6E7BDE8F88300005D
:103D00003C1C002010B5454C012280212046FDF7C7
:103D100032FEC820FDF75EFC002280212046FDF720
:103D20002AFEC820FDF756FC012280212046FDF71F
:103D300022FE0021AE2000F0FBF80021084600F032
:103D4000F7F80021102000F0F3F80021402000F0E7
:103D5000EFF80021812000F0EBF80021FF2000F0B7
:103D6000E7F80021A12000F0E3F80021C82000F0CE
:103D7000DFF80021A62000F0DBF80021A82000F0E9
:103D8000D7F800213F2000F0D3F80021D32000F025
:103D9000CFF80021084600F0CBF80021D52000F034
:103DA000C7F80021C02000F0C3F80021D92000F09E
:103DB000BFF80021F12000F0BBF80021DA2000F06C
:103DC000B7F80021122000F0B3F80021DB2000F04A
:103DD000AFF80021402000F0ABF80021202000F0D7
:103DE000A7F80021022000F0A3F800218D2000F0A8
:103DF0009FF80021142000F09BF80021A42000F07F
:103E000097F80021AF2000F093F8FFF79CFD002108
:103E1000084600F005F8002010BD0000000C01402D
:103E200010B50446B031C8B2002100F081F810206E
:103E300040EA1410002100F07BF804F00F00BDE808
:103E40001040002100F074B82DE9F041203A002420
:103E50000D460746D6B27F2803D901EBD3000027D1
:103E6000C5B2102B2946384610D0FFF7D9FF1649A6
:103E700006EB460001EB4005FF21285D00F058F8F5
:103E8000641CE4B2062CF7D3BDE8F081FFF7C8FF4D
:103E90000E4800EB0626FF21305D00F049F8641C57
:103EA000E4B2082CF7D36D1CE9B23846FFF7B8FF2F
:103EB00000243019FF21007A00F03AF8641CE4B2C3
:103EC000082CF6D3E0E70000685200089054000880
:103ED0002DE9FF5F8246581EDDF838B00024C7B2D6
:103EE0001E4691465846BBF1080F04D05FF0080506
:103EF0004FF00A0817E00625FAE7381BC1B20A207E
:103F000001F08CF9B9FBF0F1B1FBF8F208FB1210EB
:103F10003030C2B205FB04A0C0B25B460199FFF786
:103F200093FF641CE4B2B442E7D3BDE8FF9F0000F6
:103F300073B5104C0D46002210212046FDF71BFDE5
:103F40000DB1012200E0002240212046FDF713FDC3
:103F50004FF47A73012269460748FEF79BF9012264
:103F600010212046FDF707FD012240212046FDF7E4
:103F700002FD7CBD000C014028060020704738B5CA
:103F80000B46009204460022802100F009F8002828
:103F900004D0606D40F020006065032038BD000053
:103FA0002DE9F8431E46914688460446089DFDF7D4
:103FB000E7FC401B351AFDF7E3FC0746254800687F
:103FC000C0F3CB30684338E0701C37D0FDF7D8FC25
:103FD000C01BA84203D215B1009860B32CE0206842
:103FE000416821F0E00141606068B0F5827F0BD14B
:103FF000A068B0F5004F02D0B0F5806F04D1206802
:10400000016821F040010160A06AB0F5005F09D1AC
:104010002068016821F4005101602068016841F4C2
:1040200000510160012084F85100002084F8500004
:104030000320BDE8F8830025401E009020688168B9
:1040400038EA010004D000214945BDD10020F0E745
:104050000121F9E7100000207047FDF797BC30B54B
:1040600093B028216846FCF776F814210AA8FCF7DB
:1040700072F8002501200F951095119501041295F5
:104080008DE8230004904FF4E010CDE908100224DD
:1040900007946846FDF7B6FE08B172B6FEE70AA9B6
:1040A0000F2081E831004FF48060CDE90D05022139
:1040B0000AA8FDF7CBFD08B172B6FEE74FF4004049
:1040C00011900F940FA8FDF74BFD002801D072B698
:1040D000FEE713B030BD70470148FEF71ABC000080
:1040E000200700200148FEF714BC000068070020EC
:1040F000F0B50268164B174C174D4FF080479842A9
:1041000005D0B84203D0A04201D0A84203D122F08A
:1041100070064A683243984205D0B84203D0A042A4
:1041200001D0A84203D122F44074CA6822434C69EA
:1041300022F08002224302608A68C2620A688262B8
:10414000984201D10969016301214161F0BD00007C
:10415000002C0140000400400008004010B501F0B0
:104160001F030121046A99408C430462016A9A404A
:104170001143016210BD10B5846842EA032224F4A1
:104180007F440A432243826010BD826822F070029D
:104190000A4342F0070181607047000030B5036AAE
:1041A000026A22F0010202624268846924F0730507
:1041B0000C682C4323F002058B682B430A4DA84260
:1041C0000BD123F00805CB6822F440722B434D69D4
:1041D00023F0040315438A692A43426084614968D5
:1041E0004163036230BD0000002C014030B5026A1B
:1041F000036A23F010030362436884690D6824F4A2
:10420000E64444EA05248D6822F0200242EA0512C1
:104210000B4DA8420ED1CD6822F0800242EA051271
:104220004D6923F4406343EA85038D6922F040021F
:1042300043EA85034360846149688163026230BD5B
:10424000002C014030B5036A026A22F480720262D7
:104250004268C46923F4007324F073050C682C438E
:104260008D6843EA05230C4DA8420ED1CD6823F496
:10427000006343EA05234D6922F4405242EA0512E5
:104280008D6923F4806342EA05124260C461496883
:10429000C163036230BD0000002C014030B5046AE8
:1042A000026A22F4805202624268C3690D6823F4F4
:1042B000E64343EA05238D6824F4005444EA0534B8
:1042C000064DA84204D14D6922F4804242EA85128B
:1042D0004260C36149680164046230BD002C014042
:1042E00010B5036A046A24F001040462846924F0AE
:1042F000F00444EA021423F00A020A4384610262D1
:1043000010BD10B5036A046A24F0100404628469C5
:1043100023F0A00324F4704444EA023243EA01117A
:104320008261016210BD10B5406A0021C185C1845F
:10433000FEF710FD10BD70B5446A2068406994F81E
:104340004110C0F3C0100025212904D118B1E58423
:10435000204600F08EF82068406994F84210C0F3BF
:104360008010222904D118B1E585204600F05AF8C2
:10437000606C40F0100060642046FEF7EBFC70BDFE
:1043800010B50146406A096809684FF000028906C5
:104390002ED4C28501680C3151E8003F23F48073AC
:1043A00041E80034002CF5D10168143151E8003F98
:1043B00023F0010341E80034002CF5D101681431E9
:1043C00051E8003F23F0400341E80034002CF5D1D0
:1043D000202180F84210016B012909D101680C31BC
:1043E00051E8003F23F0100341E80034002CF5D1E0
:1043F0004263016B012902D0FEF77EFE10BD818D64
:10440000FEF7A7FC10BD10B5406A01214163016BA6
:10441000012902D0FEF788FE10BD818D4908FEF704
:1044200098FC10BD01680C3151E8002F22F4907205
:1044300041E80023002BF5D10168143151E8002F29
:1044400022F0010241E80023002BF5D1016B012984
:1044500009D101680C3151E8002F22F0100241E827
:104460000023002BF5D1202180F8421000210163A8
:10447000704701680C3151E8002F22F0C00241E87A
:104480000023002BF5D1202180F84110704708B59A
:1044900090F84210222901D0022008BD82684FF412
:1044A00080539A4201D1016921B1816A9A421BD09D
:1044B0004AB10AE00268816A5268C2F308020A80BF
:1044C000816A891C08E0026972B10268526802F0D0
:1044D0007F020A70816A491C8162C18D491E0904EC
:1044E000090CC18503D01BE002685268F1E701683E
:1044F000CA6822F02002CA600168CA6822F4807289
:10450000CA6001684A6922F001024A61202180F8EC
:10451000421000214163026B012A03D0FEF7ECFD3B
:10452000002008BD016301680C3151E8002F22F022
:10453000100241E80023002BF5D101680A68D20679
:1045400002D50A6849680091818DFEF702FCE7E711
:1045500070B5044600680169E26821F440511143D6
:1045600001612169A0680843616908432168CA683C
:1045700041F20C639A430243CA6020684169A26910
:1045800021F44071114341611E492068884202D1E3
:10459000FDF702FC01E0FDF7EFFB00EBC00101EBD2
:1045A0000012606864218000B2FBF0F3B3FBF1F30A
:1045B0006FF018067343B2FBF0F5B2FBF0F605EBB3
:1045C0008305322303EB0515B5FBF1F5B6FBF1F6D8
:1045D00005F0F00505EB0615B2FBF0F6B2FBF0F0C6
:1045E000B0FBF1F06FF01802504306EB800003EBD4
:1045F0000010B0FBF1F0216800F00F002844886043
:1046000070BD00000038014038B5816204468285E3
:10461000002013466064222284F84220E56B1B4A86
:10462000AA62E56B1A4AEA62E56B1A4A2A63E26BF0
:1046300050630A462168E06B091DFCF793FF206870
:10464000016840680090206948B120680C3050E84B
:10465000001F41F4807140E80012002AF5D1206863
:10466000143050E8001F41F0010140E80012002A18
:10467000F5D12068143050E8001F41F0400140E8B7
:104680000012002AF5D1002038BD00008143000847
:1046900007440008374300082DE9F04198461746C3
:1046A0000E460446069D27E0681C25D02DB1FDF777
:1046B00067F9A0EB0800A8421ED920680C3050E82A
:1046C000001F21F4D07140E80012002AF5D12068C3
:1046D000143050E8001F21F0010140E80012002AC8
:1046E000F5D1202084F8410084F84200002084F8AD
:1046F00040000320BDE8F0812068006836EA000031
:1047000004D00020B842CFD00020F3E70120F9E721
:104710002821FF20FFF704BA704770477047202117
:104720000020FFF7C7BA70470148FEF715BB00002D
:10473000B0070020FEE700000FB4054B10B503A939
:10474000044A029800F0FCF810BC5DF814FB00006D
:1047500051500008E800002037B514460846064BC3
:104760006A46214600F0ECF804466946002000F055
:104770006AFC20463EBD0000475000080907090EAC
:10478000002804DB00F1E02080F80014704700F0FE
:104790000F0000F1E02080F8141D704702E008C807
:1047A000121F08C1002AFAD170477047002001E0AB
:1047B00001C1121F002AFBD1704700002DE9FF5FE5
:1047C00082B00021DDE90430020DDDF840B0034382
:1047D00018D044F61050A2F2FF324243151411983B
:1047E00001281FD0A5EB0B00401C5FEA000A4FF028
:1047F00000064E4FDFF83891B046504615D5CAF145
:10480000000413E0119801244AA3012801D16FEAA2
:104810000B010298119AC0E90031C0E9024206B0CA
:10482000BDE8F09FCBF10000DFE704460021404ADD
:10483000491842EB0450CDE9001012E0E00707D020
:1048400032463B4640464946FBF71AFD80468946BC
:1048500032463B4610461946FBF712FD06460F4608
:104860006410002CEAD1DDE90401DDE90023BAF18E
:10487000000F06DAFBF704FD42464B46FBF700FD4E
:1048800005E0FBF76FFD42464B46FBF76BFD044628
:104890000E460022284BFBF7DDFF03D84FF0FF3018
:1048A000014607E00022254B20463146FBF713FF67
:1048B000FBF7B8FF102409E0002C0ADB0A220023D2
:1048C000FBF744FE039B30321A55641E50EA010286
:1048D000F2D1641C039AC4F111031444119A012A01
:1048E00003D0012208430DD10AE0084304D0002080
:1048F0004FF0110B119072E7A3EB0B056D1E0DE04D
:104900005B4504DD4FF0000205F1010504E003DA28
:104910004FF00002A5F10105002AECD00298119990
:10492000C0E90231C0E9004579E700000000144009
:104930000000F03F300000000000F0430000E03FC6
:104940002DE9FF4F95B09A46884606460025EEE1D0
:10495000252877D100242746F94A0121039400E055
:10496000044316F8013F203B01FA03F01042F7D14F
:1049700030782A2811D06FF02F033078A0F1300260
:10498000092A16D8039A44F0020402EB820203EBD0
:1049900042021044761C0390EFE758F8042B039270
:1049A000002A03DA504244F40054039044F0020415
:1049B000761C30782E2816D116F8010F44F0040426
:1049C0002A280DD06FF02F023078A0F13003092B88
:1049D00009D807EB870302EB4303C718761CF3E7FC
:1049E00058F8047B761C30786C280FD006DC4C28F5
:1049F00017D068280DD06A2814D104E0742810D08C
:104A00007A280FD10DE044F400140AE044F4801435
:104A100001E044F440147278824202D104F580141B
:104A2000761C761C307866280BD013DC582877D09B
:104A300009DC002875D04528F6D04628F4D0472850
:104A40001AD193E118E0632835D0642879D065281D
:104A500012D18BE1702873D008DC6728F1D0692867
:104A60006FD06E280DD06F2806D1ACE073282CD003
:104A7000752874D0782853D05246179990476D1CEA
:104A800054E1C4F30250022809D003280DD0D8F80D
:104A9000001004280DD00D6008F1040846E1D8F894
:104AA0000010EA17C1E90052F6E7D8F800100D80AF
:104AB000F2E70D70F0E718F8041B8DF800100020E5
:104AC0008DF80100EB46012003E058F804BB4FF0DD
:104AD000FF3061074FF0000102D40DE009F1010140
:104AE0008946B9420FDA8145F8DB1BF80910002925
:104AF000F4D108E009F1010189468142FADB1BF893
:104B000009100029F6D103985346A0EB0907214666
:104B10003846179A00F080FA284400EB090507E0B0
:104B200044E008E10DE01BF8010B5246179990474D
:104B3000B9F10109F7D2534621463846179AF2E0F7
:104B400039E00A21C4F302524FF0000B0091022A0F
:104B500006D058F8040BC117032A09D00AE023E055
:104B600008F1070020F00702F2E80201904605E094
:104B700000B2C117042A01D140B2C117002906DAD8
:104B80000A460021404261EB02012D2202E022058B
:104B900004D52B228DF80420012203E0E20701D086
:104BA0002022F7E7914657E00A2100E010214FF05C
:104BB000000B00910BE010214FF0000B44F00404B7
:104BC0000827009103E008204FF0000B0090C4F389
:104BD0000252022A05D058F8040B0021032A08D0FB
:104BE00008E008F1070020F00702F2E80201904611
:104BF00003E080B2042A00D1C0B24FF000092207BE
:104C00002AD53278702A07D0DDF800C08CF0100C5D
:104C10005CEA0B0C05D00EE040228DF80420012246
:104C200008E050EA010306D030238DF804308DF8F7
:104C3000052002229146009B83F0080353EA0B03F0
:104C40000AD150EA010201D1620705D530228DF860
:104C500004204FF001097F1E3278582A04D039A26F
:104C60000C920CAA02920BE03BA2F9E75B46009A79
:104C7000FBF76CFC0C9B9B5C029A521E0292137019
:104C800050EA0102F2D1029804A9081A00F1200B9F
:104C9000600702D524F4803400E001275F4502DD7F
:104CA000A7EB0B0000E0002000EB0B010090039845
:104CB0004944401A0390E00306D453462146179A0C
:104CC000039800F0A9F90544002706E001A8524620
:104CD000C05D179990476D1C7F1C4F45F6DBE003C4
:104CE0000CD553462146179A039800F095F90544D0
:104CF00004E030205246179990476D1C0099481ED9
:104D000000900029F5DC08E00298029952460078EC
:104D1000491C0291179990476D1CBBF10001ABF142
:104D2000010BF1DC5BE100F065F90544761C30789D
:104D300000287FF40DAE19B02846BDE8F08F0000C2
:104D40000928010030313233343536373839616261
:104D50006364656600000000303132333435363725
:104D6000383941424344454600000000600700D402
:104D7000062708F1070020F00700F0E8022380462C
:104D800003F0004C5FEA0C0001D097A009E0200579
:104D900001D596A005E0E00701D095A001E0AFF2B3
:104DA0004C001390307823F0004365280CD006DCCB
:104DB000452809D046281DD047287FD13BE06628EA
:104DC00018D067287AD136E00021112F01DB11209D
:104DD00000E0781CCDE9000104A90CA8FFF7EEFC67
:104DE000DDE90D010C9A4FF0000B07F1010910925B
:104DF00000914EE04FF000400097CDE9011004A96A
:104E00000CA8FFF7DBFCDDE90D020C9B0F994FF0BE
:104E1000000B91461093009211B9791C00EB010927
:104E2000B7EB090003D4C0F1FF3B07F10109A9EB7F
:104E30000700019042E0012F00DA01270021112F25
:104E400001DD112000E03846CDE9000104A90CA8DD
:104E5000FFF7B4FCDDE90D010C9A00914FF0000B57
:104E6000B946109221070FD4009A4A4503DA9146B9
:104E700001E0A9F10109B9F1010F05DD109AA9F1CD
:104E80000101515C3029F4D0B84202DA10F1040F6C
:104E900003DA0121CDE9011010E0002803DC83448E
:104EA000A9EB000102E0411C494500DD8946A0EB69
:104EB0000B00401C01904FF000400290200705D4E9
:104EC0000198484502DB4FF0FF30019000208DF83B
:104ED0004B0002980DF14B07B0F1004F25D0022096
:104EE0000C902B200D90029800280CDA4042029082
:104EF0002D200D9007E00A210298FBF711FB3031BD
:104F0000029007F8011D0C99481E0C900029F2DC54
:104F100002980028EFD1791E0D980870307800F0C3
:104F2000200040F0450007F8020D11A8C01BC01D6D
:104F300002901398007800B1012000EB090101985C
:104F400001EBE071029801440398401A401E03905F
:104F5000E00306D453462146179A039800F05CF804
:104F600005441398007818B15246179990476D1C64
:104F7000E00323D553462146179A039800F04CF8D6
:104F800005441BE0BBF1000F07DB0098584504DD2A
:104F90001098179910F80B0001E01799302052462D
:104FA000904701980BF1010B401E05F1010501909E
:104FB00004D12E205246179990476D1CB9F100017B
:104FC000A9F10109DEDC05E017F8010B524617993B
:104FD00090476D1C0299481E02900029F4DC53464C
:104FE0002146179A03989EE62D0000002B00000032
:104FF000200000002DE9F041044600251E4617461A
:10500000880404D405E039462020B0476D1C641E96
:10501000F9D52846BDE8F0812DE9F0410446002588
:105020001E469046C80301D5302700E0202788049B
:1050300004D505E041463846B0476D1C641EF9D5DD
:105040002846BDE8F0810A68531C0B601070704759
:1050500013B54FF6FF73012269460248FEF765F863
:1050600000981CBDB00700201CB5FCF797FCFEF7AC
:10507000F6FFFEF7C5F9FEF7A5F9FEF745FBFEF7CB
:1050800079F9FEF70DFBFEF7A3FAFEF773FBFEF7C7
:105090005BFAFEF77BFAFEF735FEFEF754FC324969
:1050A0006FF00100096808613049096808613048FB
:1050B000FBF7C8FE2D48FDF779FB00212D48FDF7D1
:1050C00099FD64222C492A48FCF77EF8FBF756FD2F
:1050D00001462AA0FFF730FBFBF778FD01462AA026
:1050E000FFF72AFB2BA0FFF727FB2348FBF7A0FCC9
:1050F000024610200423009019460120FEF7E8FE26
:105100001D4EFF254FF000084FF6FF794FF48067E2
:1051100016F1C8068DF8048004221F491F48FDF7C8
:10512000DDFF0122494601A8FBF7FEFC9DF80410B3
:105130001BA0FFF701FBFEF7B5F800240E4805EBB6
:1051400084213A46C830FBF7EFFC00210823802277
:1051500008460096FEF715FC0A20FCF73BFA641C93
:10516000A4B2282CEAD3D5E7680700202007002046
:10517000B4050020D8060020EC0000206964203D22
:105180002025780A000000005352203D2025780A8F
:10519000000000000A00000000000020B00700200E
:1051A00025780A000FB470B500249DF81000082877
:1051B00023D2DFE800F004070A131C1F2226FEF7A3
:1051C0003BFC1AE0FEF7FEFB17E005AA92E80B0095
:1051D000C9B2C0B21022FEF7C9FC0EE0059D0AA0BC
:1051E0002946FFF7A9FA68B2FEF7EEFA05E0FDF7E7
:1051F000F7FF01E0FDF7E8FF0446204670BC5DF8CC
:1052000014FBFEF7D4FAF7E753484F575F43555264
:10521000534F52203D20256400000000024601202B
:1052200000E05043491EC9B2FBD27047010202039D
:105230000405060708090A0B0C0D0E0F10100102D9
:1052400002030405060708090A0B0C0D0E0F1010C7
:105250000000000000000000010203040607080926
:105260000000000001020304000000000000000034
:10527000002F000000000700070000147F147F14B7
:1052800000242A7F2A12006264081323003649553D
:10529000225000000503000000001C224100000015
:1052A00041221C000014083E08140008083E0808AB
:1052B000000000A060000008080808080000606006
:1052C0000000002010080402003E5149453E000045
:1052D000427F4000004261514946002141454B3127
:1052E000001814127F10002745454539003C4A49F3
:1052F0004930000171090503003649494936000665
:105300004949291E000036360000000056360000CC
:105310000008142241000014141414140000412247
:10532000140800020151090600324959513E007C1F
:105330001211127C007F49494936003E4141412209
:10534000007F4141221C007F49494941007F0909F2
:105350000901003E4149497A007F0808087F0000A2
:10536000417F4100002040413F01007F081422415D
:10537000007F40404040007F020C027F007F040815
:10538000107F003E4141413E007F09090906003E71
:105390004151215E007F091929460046494949319A
:1053A0000001017F0101003F4040403F001F2040BD
:1053B000201F003F4038403F00631408146300077B
:1053C0000870080700615149454300007F414100D2
:1053D00000552A552A55000041417F000004020172
:1053E0000204004040404040000001020400002050
:1053F00054545478007F484444380038444444208E
:1054000000384444487F00385454541800087E093A
:1054100001020018A4A4A47C007F08040478000002
:10542000447D4000004080847D00007F10284400BF
:105430000000417F4000007C04180478007C0804D0
:10544000047800384444443800FC2424241800180C
:10545000242418FC007C08040408004854545420F8
:1054600000043F444020003C4040207C001C204081
:10547000201C003C4030403C004428102844001CC4
:10548000A0A0A07C004464544C44141414141414BC
:10549000000000000000000000000000000000000C
:1054A000000000F8000000000000003330000000A1
:1054B00000100C06100C06000000000000000000A8
:1054C00040C07840C0784000043F04043F0404001A
:1054D000007088FC08300000001820FF211E00002A
:1054E000F008F000E018000000211C031E211E003F
:1054F00000F00888700000001E21232419272110C5
:1055000010160E0000000000000000000000000067
:10551000000000E01804020000000007182040000E
:1055200000020418E00000000040201807000000FE
:10553000404080F0804040000202010F0102020062
:10554000000000F0000000000101011F0101010046
:10555000000000000000000080B0700000000000AB
:105560000000000000000000000101010101010134
:1055700000000000000000000030300000000000CB
:1055800000000000806018040060180601000000A0
:1055900000E010080810E000000F102020100F009D
:1055A000001010F8000000000020203F2020000024
:1055B000007008080888700000302824222130007C
:1055C00000300888884830000018202020110E0084
:1055D0000000C02010F8000000070424243F24002D
:1055E00000F80888880808000019212020110E0002
:1055F00000E0108888180000000F112020110E0014
:1056000000380808C83808000000003F000000000B
:105610000070880808887000001C222121221C00CC
:1056200000E010080810E0000000312222110F00F5
:10563000000000C0C000000000000030300000008A
:1056400000000080000000000000806000000000FA
:105650000000804020100800000102040810200013
:10566000404040404040400004040404040404005E
:1056700000081020408000000020100804020100F3
:10568000007048080808F0000000003036010000F3
:10569000C030C828E810E0000718272423140B00A6
:1056A0000000C038E0000000203C23020227382020
:1056B00008F8888888700000203F202020110E0004
:1056C000C0300808080838000718202020100800FB
:1056D00008F808080810E000203F202020100F00E4
:1056E00008F88888E8081000203F202023201800B0
:1056F00008F88888E8081000203F20000300000018
:10570000C03008080838000007182020221E0200B8
:1057100008F808000008F808203F210101213F2077
:10572000000808F8080800000020203F20200000A2
:1057300000000808F8080800C08080807F00000092
:1057400008F888C028180800203F200126382000CB
:1057500008F8080000000000203F20202020300032
:1057600008F8F800F8F80800203F003F003F20004C
:1057700008F830C00008F808203F200007183F0054
:10578000E01008080810E0000F10202020100F0083
:1057900008F808080808F000203F21010101000076
:1057A000E01008080810E0000F18242438504F00BB
:1057B00008F8888888887000203F2000030C30207B
:1057C00000708808080838000038202121221C00B9
:1057D000180808F8080818000000203F2000000002
:1057E00008F808000008F808001F202020201F00EB
:1057F0000878880000C83808000007380E0100004B
:10580000F80800F80008F800033C0700073C030014
:10581000081868808068180820302C03032C30207A
:105820000838C800C83808000000203F20000000E9
:1058300010080808C8380800203826212020180041
:10584000000000FE020202000000007F4040400015
:10585000000C30C000000000000000010638C0004D
:1058600000020202FE000000004040407F000000F5
:10587000000004020202040000000000000000001A
:105880000000000000000000808080808080808018
:105890000002020400000000000000000000000000
:1058A00000008080808000000019242222223F20F6
:1058B00008F8008080000000003F112020110E0039
:1058C0000000008080800000000E112020201100C8
:1058D000000000808088F800000E112020103F207A
:1058E0000000808080800000001F222222221300FE
:1058F000008080F0888888180020203F2020000049
:105900000000808080808000006B949494936000FD
:1059100008F8008080800000203F210000203F2008
:1059200000809898000000000020203F2020000008
:10593000000000809898000000C08080807F0000F8
:1059400008F8000080808000203F24022D302000D5
:10595000000808F8000000000020203F2020000080
:105960008080808080808000203F20003F20003F9A
:105970008080008080800000203F210000203F20A8
:105980000000808080800000001F202020201F0059
:10599000808000808000000080FFA12020110E0088
:1059A0000000008080808000000E112020A0FF8079
:1059B000808080008080800020203F212000010026
:1059C000000080808080800000332424242419007B
:1059D000008080E0808000000000001F2020000088
:1059E0008080000000808000001F202020103F20C9
:1059F000808080000080808000010E300806010059
:105A000080800080008080800F300C030C300F00FD
:105A100000808000808080000020312E0E31200028
:105A2000808080000080808080818E701806010058
:105A300000808080808080000021302C2221300076
:105A400000000000807C020200000000003F404097
:105A500000000000FF00000000000000FF00000048
:105A60000002027C800000000040403F0000000077
:105A70000006010102020404000000000000000012
:105A80002E2E00003C3C3C004C4F474F00000000D5
:105A90004D616E75616C4D6F6465000042616441DB
:105AA00070706C65000000005374796C6500000034
:105AB00054696D65207377697463680053797374F2
:105AC000656D0000416E696D6174696F6E00000064
:105AD000496E666F726D6174696F6E004D6F746FA1
