:020000040800F2
:1000000028080020890100085D260008BF1F00089D
:10001000ED250008D5030008972B0008000000001C
:10002000000000000000000000000000A3280008FD
:100030000F04000800000000A1280008D5280008CF
:10004000A3010008A3010008A3010008A301000800
:10005000A3010008A3010008A3010008110400087F
:1000600017040008A3010008A3010008D903000831
:10007000A3010008A3010008A3010008A3010008D0
:10008000A3010008A3010008A3010008A3010008C0
:10009000A3010008A3010008A3010008A3010008B0
:1000A000A3010008A3010008A3010008A3010008A0
:1000B000A301000855290008A3010008A3010008B6
:1000C000A3010008A3010008A3010008A301000880
:1000D000A3010008A3010008A3010008A301000870
:1000E000A3010008A3010008A301000800F002F822
:1000F00000F03AF80AA090E8000C82448344AAF188
:100100000107DA4501D100F02FF8AFF2090EBAE885
:100110000F0013F0010F18BFFB1A43F0010318473B
:100120003837000058370000103A24BF78C878C12B
:10013000FAD8520724BF30C830C144BF04680C60ED
:10014000704700000023002400250026103A28BF35
:1001500078C1FBD8520728BF30C148BF0B60704739
:100160001FB51FBD10B510BD00F058F81146FFF7C0
:10017000F7FF02F021FD00F076F803B4FFF7F2FF7D
:1001800003BC00F07DF8000009488047094800479B
:10019000FEE7FEE7FEE7FEE7FEE7FEE7FEE7FEE737
:1001A000FEE7FEE704480549054A064B7047000094
:1001B00051290008ED00000828020020280800202E
:1001C00028040020280400204FF0000200B5134648
:1001D00094469646203922BFA0E80C50A0E80C5067
:1001E000B1F12001BFF4F7AF090728BFA0E80C5018
:1001F00048BF0CC05DF804EB890028BF40F8042B11
:1002000008BF704748BF20F8022B11F0804F18BF7D
:1002100000F8012B7047704770477047754600F033
:100220002BF8AE4605006946534620F00700854688
:1002300018B020B5FFF7B6FFBDE820404FF000062C
:100240004FF000074FF000084FF0000B21F00701BE
:10025000AC46ACE8C009ACE8C009ACE8C009ACE801
:10026000C0098D46704710B50446AFF300802046A4
:10027000BDE81040FFF781BF00487047C40100206F
:1002800001491820ABBEFEE72600020070470000BF
:1002900070B5044600688168C943C90717D18168F1
:1002A00021F00101816000F087FD05460AE000BFF2
:1002B00000F082FD401B022804D920688068C043FA
:1002C000C00706D020688068C043C007F0D0002077
:1002D00070BDA06A40F01000A062E06A40F001002A
:1002E000E062012070BD10B50146406A826A12F0DA
:1002F000500F05D0006A026BBDE810400846104759
:10030000816A41F40071816201688968C1F34241E8
:1003100007290CD1017B51B9816A21F48071816276
:10032000816AC90403D4816A41F00101816200F04D
:1003300061F910BD10B5406A816A41F040018162E7
:10034000C16A41F00401C16200F056F910BD10B558
:10035000406A00F050F910BDF8B50026044600963A
:1003600000688168C943C9072DD0816841F0010147
:100370008160164816490068B0FBF1F000E0401EAD
:1003800000900028FBD100F017FD054616E000BFE5
:1003900000F012FD401B022810D920688068C0437D
:1003A000C0070BD0A06A40F01000A062E06A40F0E5
:1003B0000100E06284F824600120F8BD20688068B4
:1003C000C043C007E4D10020F8BD00001C0000209D
:1003D00040420F00FEE70000014800F069BA00004B
:1003E0005400002030B590F840500124AC40C56B5B
:1003F0006C60046863604368102B036803D09960E5
:100400000068C26030BD9A600068C16030BD70474E
:10041000022000F0CBBB042000F0C8BB72B6FEE7A0
:10042000F8B500250446009590F8240001280BD06B
:10043000012084F824002046FFF72AFF2046FFF71A
:100440008BFF060002D050E00220F8BDA06A20F425
:10045000885040F00200A062022000F0DDFE254935
:100460000968B1FBF0F0400000E0401E0090002859
:10047000FBD12068816841F00801816000F09CFC9C
:10048000074608E000F098FCC01B0A2803D9206842
:100490008068000715D4206880680007F2D42068BF
:1004A000816841F00401816000F086FC074612E09B
:1004B00000F082FCC01B0A280DD920688068400724
:1004C00009D5A06A20F0020040F01000A06284F874
:1004D00024500120F8BD206880684007E8D4A06A55
:1004E00020F0020040F00100A06284F82450304661
:1004F000F8BD00001C000020F8B50024009490F81E
:1005000024202546012A12D0012280F824204A689E
:100510001F23072A0DD20668776B521E02EB820258
:1005200093409F430B6893401F43776319E0022079
:10053000F8BD06680D2A0AD2376BD21F02EB820281
:1005400093409F430B6893401F43376309E0F76A6A
:100550000D3A02EB820293409F430B6893401F4386
:10056000F7620A68072306680A2A0AD3F7680A3A74
:1005700002EB420293409F438B6893401F43F76016
:1005800008E0376902EB420293409F438B68934037
:100590001F4337610A68102A01D0112A20D1124B5B
:1005A00002689A4217D193681B0219D4936843F4E6
:1005B000000393600968102912D10C490C4A09689C
:1005C000B1FBF2F101EB8101490000E0491E00910D
:1005D0000029FBD104E0816A41F0200181620124FD
:1005E00080F824502046F8BD002401401C00002063
:1005F00040420F0070477047704700002DE9F041FE
:100600004FF0000704003D467ED0A06A002628B9BE
:10061000E66284F82460204600F07EF82046FFF76A
:1006200037FEA16AC90600D420B1A06A40F01000CC
:10063000A06269E0A16A21F4885141F00201A1623F
:100640006268E169237B0A4347EA43010A43A168E0
:100650004FF48077B94209D0012907D05FF000013B
:1006600094F814C0BCF1010F02D00AE03946F7E754
:10067000F3B1A36A43F02003A362E36A43F00103EA
:10068000E3622368D3F804C02CF4694C4CEA010CF3
:10069000C3F804C021688B68DFF870C003EA0C035C
:1006A00013438B60A168B9420BD0012909D00CE03B
:1006B000DFF85CC0A3690CEB43330B4343F40061E8
:1006C000DFE7218A0D05A5F580152168CB6A23F4A3
:1006D00070032B43CB62216889680E4B194091420D
:1006E00008D1E662A16A21F0020141F00101A16294
:1006F000BDE8F081A06A20F0020040F01000A06286
:10070000E06A40F00100E0620120F1E7FDF7E1FF5F
:1007100000E0FFFFFE0E1FFFF0B585B00025064686
:1007200000950195029503950068194988422DD1DD
:100730001849886940F400708861886900F4007085
:100740000490886940F0040088618869202700F0DF
:10075000040004900320CDE9007069460E4800F0C3
:1007600031FA0F4C0D48C4E900058020C4E902505D
:10077000400020618000E561C4E90507204600F0E3
:1007800041F908B1FFF74AFE3462666205B0F0BD78
:10079000002401400010024000080140080002400F
:1007A000540000202DE9F047894604463B49006883
:1007B0003B4F0E1D9046884201D0B84207D13068A9
:1007C00010F4702F03D001252846BDE8F08794F877
:1007D000240001280CD0012084F824002046FFF7D3
:1007E000BBFD05004FF0000004D084F82400EBE7C7
:1007F0000220EAE7A16A40F60162914341F4807168
:10080000A1622168B94218D1326812F4702F14D055
:10081000A16A41F48011A1623168490505D5A16A38
:1008200021F4005141F48051A162A16AC9040AD5A2
:10083000E16A21F00601E16206E0A26A22F4801278
:10084000A2624968E9E7E06284F82400216A154859
:100850008862216A1448C862216A144808632168C2
:100860006FF0020008602068816841F48071816047
:10087000216843464A464C31206A00F0F1F820686E
:100880008168C1F342410729816803D041F4801196
:10089000816099E741F4A001FAE7000000240140DB
:1008A00000280140E70200084F0300083503000854
:1008B0002DE9F05FC16B0C6801680B68D0F840C08F
:1008C000042202FA0CF2494DDFF824A1494E4A4FA6
:1008D000DFF828B1DFF828E122422CD05A072AD5C8
:1008E0000A68920603D40A6822F004020A600168CA
:1008F000A94201D1042219E0514501D1402215E05D
:10090000B14202D14FF4806210E0B94202D14FF4FB
:1009100080420BE0594502D14FF4802206E0714538
:1009200002D14FF4800201E04FF080622F49083974
:100930004A60C16A3BE04FF0020808FA0CF818EA76
:10094000040F4FF000094FF0010235D05FEA8378C1
:1009500032D50B689B0605D40B6823F00A030B60A5
:1009600080F821200168A94201D1022219E05145F5
:1009700001D1202215E0B14202D14FF4007210E003
:10098000B94202D14FF400520BE0594502D14FF465
:10099000003206E0714502D14FF4001201E04FF041
:1009A0000072124908394A6080F82090816A002953
:1009B0001AD0BDE8F05F0847082505FA0CF5254276
:1009C00012D01B0710D50B6823F00E030B6090F8B4
:1009D0004010C36B02FA01F15960826380F8212054
:1009E00080F82090016BE2E7BDE8F09F080002402C
:1009F0001C00024030000240440002405800024007
:100A00006C00024030B528B308C8134914221944B9
:100A1000B1FBF2F18900C163104981630221417782
:100A20001A6843F6F0718A43D0E900142143D0E9F3
:100A300002452C43214304692143446921438469CD
:100A4000214311431960002141630122427701775C
:100A5000084630BD012030BDF8FFFDBF0000024058
:100A600070B5044690F82000002501280CD0012024
:100A700084F8200094F821600020012E06D084F82C
:100A800020000225284670BD022070BD022684F891
:100A90002160A0632068066826F0010606602046F3
:100AA000FFF7A0FCE06A00282068016802D041F04E
:100AB0000E0106E021F0040101602068016841F0A8
:100AC0000A0101602068016841F001010160D9E775
:100AD00070B5044600F070F90546601C02D0044869
:100AE0000078044400F068F9401BA042FAD370BDBE
:100AF000100000202DE9FC41294C042812D00228C6
:100B000038D1284FA0600121384600F04BF90A2562
:100B1000102608B1E06880B10121384600F042F9A2
:100B200070B10FE020490120A0600968C01E086173
:100B3000BDE8FC411C4800F081BF6268643209E0F6
:100B4000E06828B10121384600F02CF9A0B116E088
:100B50006268643A6260CDE90065012104230846B9
:100B600001F056FECDE900650521042322880846E0
:100B700001F04EFEBDE8FC81E06801280ED00121A5
:100B8000384600F00FF90028F4D0E0680128F1D1D0
:100B90000121BDE8FC41012001F02ABD0021F8E758
:100BA00000000020000801407C010020044910B52D
:100BB0000A68024202D00860FFF79CFF10BD0000E7
:100BC000140401402DE9F84FDFF8B8910024A9F191
:100BD000040B23460F2709F1040AABF1040EC9E008
:100BE0000125A5402A40AA427DD1674ED1F804C014
:100BF000ACEB0608B44532D014DCBCF1030F3AD09C
:100C000009DCBCF1000F2AD0BCF1010F1CD0BCF1F3
:100C1000020F31D11DE0BCF1110F17D0BCF1120F42
:100C20002AD119E0B8F5881F19D006DCB8F5803F45
:100C300015D0B8F5801F1FD111E0B8F5001F0ED0F8
:100C4000B8F5041F18D10AE0CB6815E0CB681B1D6E
:100C500012E0CB6808330FE0CB680C330CE08B68F4
:100C60002BB1012B4FF0080303D0456104E00423AE
:100C700002E0056100E00023FF2A01D8064601E0FA
:100C800000F104064FEA840501D9A5F12005D6F844
:100C9000008007FA05FC28EA0C0803FA05F548EA83
:100CA0000508C6F800804D68ED0062D5374DAE6985
:100CB00046F00106AE61AD6924F0030605F00105BA
:100CC0000095334D06EB050CDCF80850A607360FEF
:100CD00007FA06F825EA0805DFF8B880404503D191
:100CE0004FF0000817E044E0DFF8AC80404502D147
:100CF0004FF001080FE0DFF8A480404502D14FF02B
:100D0000020808E0DFF89880404502D14FF0030860
:100D100001E04FF0040808FA06F848EA0508CCF8A4
:100D200008804D68D9F80060ED024D4601D51643A4
:100D300000E096432E604D68DAF80060AD0255463B
:100D400001D5164300E096432E604D68DBF8006045
:100D5000AD035D4601D5164300E096432E604D6815
:100D6000DEF80060ED03754601D5164300E09643BA
:100D70002E60641C0D682A46E5407FF431AFBDE863
:100D8000F88F00000804014000001110001002401C
:100D90000000014000080140000C0140001001402B
:100DA000001401408068084000D0012070470AB15B
:100DB000016170470904FBE7014880687047000043
:100DC0001000002070B5040025D094F83D000025E7
:100DD00020B984F83C50204600F04EF9242084F8D5
:100DE0003D002068016821F0010101602068016870
:100DF00041F4004101602068016821F40041016074
:100E000000F06EFB4D4A6168914201D84C4900E008
:100E10004C49884201D2012070BD4B492368B0FB88
:100E2000F1F15E6826F03F060E435E606368934210
:100E300006D94FF4967359434FF47A73B1FBF3F12B
:100E40002368491C1E6A26F03F0631431962616817
:100E5000914210D84900401EB0FBF1F2521CC2F37F
:100E60000B02042A01D2042022E0B0FBF1F0401C66
:100E7000C0F30B001CE0A268F2B301EBC10303EB6B
:100E80000116431EB3FBF6F35B1C43F480431B05C2
:100E900049D092B301EBC10202EB0111401EB0FB3D
:100EA000F1F0401CC0F30B0040F4804040F40040DF
:100EB0002168CA694CF6FF739A431043C861D4E9AC
:100EC000071001432068026822F0C002114301604C
:100ED000D4E9030101432068826848F2FF339A4352
:100EE00011438160D4E9050108432168CA6822F0F2
:100EF000FF021043C86001E00EE016E020680168C0
:100F000041F0010101602564202084F83D00256343
:100F100084F83E50002070BD01EB4106431EB3FB38
:100F2000F6F35B1CB3E70120C2E701EB4101401E71
:100F3000B0FBF1F0401CC0F30B00B7E7A086010046
:100F400080841E0000093D0040420F002DE9F84F4B
:100F50001F4690468A460446DDF82890FFF72CFF8E
:100F6000054694F83D0020287FD1192301224049ED
:100F70002046009501F0B6F8002876D194F83C00A0
:100F8000012872D0012084F83C0020680168C9075C
:100F900003D1016841F0010101602068016821F47A
:100FA00000610160212084F83D00102084F83E009B
:100FB00000262664C4F824806785608D20852D482E
:100FC000E0622B464A465146204601F011F890B99E
:100FD000206841698069009036E02A4649462046EB
:100FE00001F026F950B1206C042804D12068016872
:100FF00041F4007101600120BDE8F88F606A21684A
:1010000000780861606A401C6062618D491E6185DC
:10101000218D491E89B2218522685369DB435B0714
:101020000BD451B100781061606A401C6062608D21
:10103000401E6085208D401E20852A464946204658
:1010400001F024F80028CED1208D0028C5D154F815
:101050003D0B016841F400710160202004F81E0975
:10106000E67766770020C7E7FFE70220C4E70000C5
:10107000020010000000FFFF10B586B000210091B3
:1010800001910291039100681349884222D1134CC7
:10109000A06940F00800A061A069694600F008005E
:1010A00004904FF4407000901220019003200390B0
:1010B0000B48FFF787FD0B48416841F0E06141F0C4
:1010C00002014160E06940F40010E061E06900F471
:1010D0000010049006B010BD005400400010024003
:1010E000000C014000000140024881680278114470
:1010F0008160704710000020074810B5016841F07A
:1011000010010160032000F075F80F2000F006F8D0
:1011100000F024F8002010BD0020024070B50D4DF5
:1011200004464FF47A712878B1FBF0F00A49096857
:10113000B1FBF0F000F0AAFB48B9102C07D2002256
:101140002146501E00F036F800206C6070BD012072
:1011500070BD0000100000201C0000200C4808B5E5
:10116000816941F001018161816901F00101009112
:10117000C16941F08051C161C06900F080500090A8
:101180000448416821F0E06141F00071416008BD10
:101190000010024000000140002809DB00F01F029F
:1011A000012191404009800000F1E020C0F80011C9
:1011B00070470000F0B40E4B1B680C46C3F30223CB
:1011C000C3F10705042D00D90425191D072901D2F3
:1011D000002300E0DB1E012606FA05F1491E21402E
:1011E00099409E40761E16403143F0BC01F0D4BCBD
:1011F0000CED00E0064900F0070208684FF6FF0317
:10120000184040EA0220034A10430860704700007B
:101210000CED00E00000FA0510B501460020234C5B
:10122000012922D0022939D010291DD161682268F4
:10123000D20119D51E48C1F38342C903805C0AD587
:1012400061681B4AC1F34041921E515C194AB2FBCE
:10125000F1F1484301E0184948436168490203D469
:1012600040000321B0FBF1F010BD226AC2F301215E
:10127000012903D1920701D5C80310BD022905D168
:10128000626A920702D549F6404010BD0329FCD19D
:1012900021688903F9D54FF2244010BD00F030F9E0
:1012A0006168C1F38131491C4900DBE7001002404D
:1012B000982C000800127A0000093D002DE9F8433F
:1012C00005460078354CC00754D0E0690026C000C0
:1012D00008D4E06940F08050E061E069012600F048
:1012E000805000902E480168C90512D401688046DC
:1012F00041F480710160FFF75FFD074605E000BF24
:10130000FFF75AFDC01B642823D8D8F80000C00599
:10131000F6D5206A10F4407021D0A98801F44071FC
:1013200081421CD0206A1F49012220F440700A60CB
:1013300000220A602062C00711D0FFF73DFD07467A
:1013400041F2883808E000BFFFF736FDC11B414578
:1013500002D90320BDE8F883206A8007F4D5206A0B
:10136000696820F44070084320621EB1E06920F0F3
:101370008050E0612878800705D56068A96820F46E
:101380004040084360602878C00605D56068E96879
:1013900020F48000084360600020DBE7001002407A
:1013A00000700040400442422DE9F0470F4605001E
:1013B00061D0434E306800F00700B84209D230686F
:1013C00020F0070038433060306800F00700B84272
:1013D00051D128683B4C810712D5400703D560687E
:1013E00040F4E06060602878000703D5606840F44E
:1013F000605060606068A96820F0F0000843606099
:101400002878C00728D06868012810D021680228F1
:1014100010D0890700292EDA616821F00301014309
:101420006160FFF7C9FC804641F288390DE0216810
:101430008903EFE78901EDE7FFF7BEFCA0EB0801A8
:10144000494502D90320BDE8F0876068696800F06B
:101450000C00B0EB810FEFD1306800F00700B8420C
:101460000BD9306820F0070038433060306800F056
:101470000700B84201D00120E5E72878400705D5EC
:101480006068E96820F4E06008436060287800073D
:1014900006D56068296920F4605040EAC1006060A8
:1014A00000F03EF86168084AC1F30311515CC8407E
:1014B0000649086006480068FFF730FE0020C2E7D2
:1014C0000020024000100240A82C00081C00002050
:1014D0001400002001480068704700001C00002034
:1014E0000448054900684968044AC1F30221515C77
:1014F000C84070471C00002000100240B82C0008B3
:101500000448054900684968044AC1F3C221515C96
:10151000C84070471C00002000100240B82C000892
:101520000E4A51680E4801F00C03042B11D0082B11
:101530000FD10C48C1F38343C903C05C0AD551687D
:10154000084AC1F34041921E515C054A5043B0FB2A
:10155000F1F0704704494843704700000010024012
:1015600000127A00862C000800093D002DE9F84F92
:10157000040070D02078C04DC00749D06868C0F31F
:101580008100012807D06868C0F38100022809D1D2
:101590006868C00306D52868800339D560680028CC
:1015A000E7D035E06068B0F5803F0BD010B1B0F502
:1015B000A02F11D0286820F480302860286820F4FB
:1015C000802002E0286840F480302860606890B194
:1015D000FFF7F2FB06460AE0286840F48020286006
:1015E000F0E700BFFFF7E8FB801B642873D828688A
:1015F0008003F7D50CE0FFF7DFFB064605E000BFF0
:10160000FFF7DAFB801B6428F0D828688003F7D442
:1016100020789A4E80074FF001094FF0000839D525
:10162000686810F00C0F07D06868C0F381000228CA
:1016300009D16868C00306D42868800714D52069DA
:10164000012808D110E02069B0B1C6F80090FFF77A
:10165000B3FB074605E00AE1FFF7AEFBC01B02281B
:10166000C4D828688007F7D52868616920F0F80099
:1016700040EAC10028600DE0C6F80080FFF79CFB3F
:10168000074604E0FFF798FBC01B022823D8286810
:101690008007F7D4207800072CD57948A169D9B103
:1016A000C0F80090FFF788FB074604E0FFF784FBD3
:1016B000C01B02280FD8686A8007F7D571484FF41D
:1016C000FA510068B0FBF1F0009000BF0098411E95
:1016D0000091FAD20EE080E0C0F80080FFF76CFBCA
:1016E000074604E0FFF768FBC01B022875D8686A4C
:1016F0008007F7D42078400760D5E8690027C0004C
:1017000008D4E86940F08050E861E869012700F0FA
:10171000805000905C480168C90513D40168834675
:1017200041F480710160FFF747FB824606E000BF8D
:10173000FFF742FBA0EB0A0064284ED8DBF800005C
:10174000C005F5D5E06801280AD008B1052813D0F6
:10175000286A20F001002862286A20F0040002E0D4
:10176000286A40F001002862E06841F2883B98B1A5
:10177000FFF722FB82460BE0286A40F00400286253
:10178000EEE700BFFFF718FBA0EB0A0159455AD856
:10179000286A8007F6D50CE0FFF70EFB824605E0CD
:1017A000FFF70AFBA0EB0A0159454CD8286A8007CD
:1017B000F6D41FB1E86920F08050E861E06988B391
:1017C0006968C1F38101022944D00228C6F860800B
:1017D00004D0FFF7F1FA044638E034E0FFF7ECFA02
:1017E000074604E0FFF7E8FAC01B02282BD8286858
:1017F0008001F7D4206AB0F5803F05D16868A16800
:1018000020F4003008436860D4E90801084369689F
:1018100021F4741108436860C6F86090FFF7CCFAB1
:10182000044606E025E000BFFFF7C6FA001B0228C9
:1018300009D828688001F7D51BE000BFFFF7BCFA84
:10184000001B022802D90320BDE8F88F2868800118
:10185000F4D40EE00128F7D06868226A00F48031E1
:10186000914204D1616A00F47010884201D00120D5
:10187000EAE70020E8E700000010024000004242D2
:10188000800442421C0000200070004010B5401E41
:10189000B0F1807F01D3012010BD4FF0E0246061E2
:1018A0000F21601701F078F90020A0610720206166
:1018B000002010BD7047704710B590F83C20012AF9
:1018C00022D0012280F83C20CA688C6822F4407241
:1018D00022434C6822F4806222430C6822F40062A6
:1018E00022430C6922F4805222434C6922F40052B4
:1018F0002243C969002322F480420A4301684A64F2
:1019000080F83C30002010BD022010BD70B590F86A
:101910003C20012A26D0012480F83C40022280F895
:101920003D2003685A689D6822F070060A683243B9
:101930005A600D4B02689A4208D0B2F1804F05D030
:101940000A4B9A4202D00A4B9A4204D1496825F0C8
:1019500080031943916080F83D40002180F83C10DD
:10196000084670BD022070BD002C014000040040FC
:101970000008004010B5040003D094F83D0010B1F9
:1019800007E0012010BD002084F83C00204600F054
:101990001FF8022084F83D00211D206800F0E0FFC0
:1019A000012084F8460084F83E0084F83F0084F863
:1019B000400084F8410084F8420084F8430084F831
:1019C000440084F8450084F83D00002010BD00006C
:1019D00008B5174A01681748914207D1816941F457
:1019E00000618161806900F400601EE0B1F1804F08
:1019F00014D0114A914219D1C16941F00201C1616B
:101A0000C069002200F00200009001211D20FFF7B4
:101A1000D1FBBDE808401D20FFF7BEBBC16941F006
:101A20000101C161C06900F00100009008BD000023
:101A3000002C0140001002400004004090F83D10CE
:101A4000012901D001207047022180F83D10016872
:101A5000CA6842F00102CA6000680B49884208D097
:101A6000B0F1804F05D00949884202D00849884228
:101A700004D1816801F00701062903D0016841F013
:101A80000101016000207047002C0140000400406B
:101A9000000800400168CA6822F00102CA600168BB
:101AA0000A6A41F211131A4207D10A6A9B101A42BC
:101AB00003D10A6822F001020A60012180F83D107A
:101AC0000020704770B5044690F83C0000250128BE
:101AD00017D0012684F83C60022084F83D0020687D
:101AE000826822F0770222F47F42826008685028E0
:101AF00038D00DDC20284FD005DC90B3102811D150
:101B00004AE0022070BD302846D040280AD13BE090
:101B100060282FD070280DD0B0F5805F03D0B0F5CD
:101B2000005F12D0012584F83D60002084F83C005D
:101B3000284670BDCB68D1E90121206800F053FF31
:101B40002068816841F0770109E0CB68D1E9012183
:101B5000206800F048FF2068816841F4804181607E
:101B6000E1E719E0CA684968206800F0F1FF5021F8
:101B7000206806E0CA684968206800F0FAFF602122
:101B8000206800F03AFFCEE7CA684968206800F094
:101B9000DFFF40212068F4E7226801461046F0E7A5
:101BA000704770B50446006801694FF00005C943ED
:101BB000890715D4C168C943890711D4E91E016199
:101BC00001202077206880698007204602D0FFF737
:101BD000E7FF04E000F0DEF8204600F070F925771A
:101BE00020680169C943490717D4C168C943490737
:101BF00013D46FF00401016102202077206880690E
:101C000010F4407F204602D0FFF7CAFF04E000F046
:101C1000C1F8204600F053F9257720680169C943CF
:101C2000090716D4C168C943090712D46FF0080127
:101C30000161042020772068C0698007204602D017
:101C4000FFF7AEFF04E000F0A5F8204600F037F9FA
:101C5000257720680169C943C90617D4C168C943FB
:101C6000C90613D46FF010010161082020772068A5
:101C7000C06910F4407F204602D0FFF791FF04E0D6
:101C800000F088F8204600F01AF9257720680169ED
:101C9000C943C90708D1C168C943C90704D1891E0E
:101CA0000161204600F05AF920680169C94309061C
:101CB00009D4C168C943090605D46FF080010161E8
:101CC0002046FFF7F7FD20680169C943490609D49A
:101CD000C168C943490605D46FF04001016120463F
:101CE00000F06CF920680169C94389060BD4C1680A
:101CF000C943890607D46FF0200101612046BDE881
:101D00007040FFF7D8BD70BD00B585B000210091CF
:101D10000191029103911A4B02681A4802219A42DA
:101D200011D1826942F0040282618069039100F05E
:101D300004000490C801CDE9000169461248FEF78D
:101D400041FF05B000BDB2F1804FFAD1826942F087
:101D5000080282618069039100F008000490082065
:101D6000CDE9000169460948FEF72CFF08484168A3
:101D700021F4407141F0E06141F480714160E0E79D
:101D8000002C01400010024000080140000C0140FE
:101D900000000140704770B5044690F83C000026F2
:101DA0000D4601280FD0012084F83C006AB1042AB6
:101DB0001DD0082A2FD00C2A3FD00126002084F8FD
:101DC0003C00304670BD022070BD206800F01EFE51
:101DD0002068816941F0080181612068816921F0F2
:101DE00004018161206881692A69114311E020683A
:101DF00000F034FE2068816941F40061816120684F
:101E0000816921F480618161206881692A6941EAE0
:101E100002218161D2E7206800F04CFE2068C16990
:101E200041F00801C1612068C16921F00401C1616C
:101E30002068C1692A69114311E0206800F066FE3C
:101E40002068C16941F40061C1612068C16921F461
:101E50008061C1612068C1692A6941EA0221C161CA
:101E6000ACE710B5040003D094F83D0010B107E0D2
:101E7000012010BD002084F83C00204600F01EF830
:101E8000022084F83D00211D206800F069FD01203A
:101E900084F8460084F83E0084F83F0084F840004F
:101EA00084F8410084F8420084F8430084F8440038
:101EB00084F8450084F83D00002010BD704770474D
:101EC00010B50446022249B104290ED0082913D0C6
:101ED00094F84100012816D0012010BD94F83E006E
:101EE0000128F9D184F83E200FE094F83F00012842
:101EF000F2D184F83F2008E094F840000128EBD1AB
:101F000084F8402001E084F841200122206800F09C
:101F10005DFD0F492068884203D1426C42F40042C3
:101F200042642068884208D0B0F1804F05D009494A
:101F3000884202D00849884204D1816801F0070133
:101F4000062903D0016841F001010160002010BDA5
:101F5000002C014000040040000800407CB5144DF6
:101F60006FF00100296808612846FFF793FD286893
:101F70000024446204210F48FEF714FF002816D104
:101F80000D488168012912D1C16811B1012903D01E
:101F900003E00121C16000E0C4600A221021CDE904
:101FA00000120321C2680123084600F031FC7CBD09
:101FB0007C01002000080140000000207047FEE77F
:101FC00001684A69D24352050FD46FF480624A61B6
:101FD000002140F8301F202242738173026942F0D1
:101FE0000402026101730120704700207047000065
:101FF000F8B50446C06A1E460D461746082807D0A5
:10200000012805D010F5803F02D0206B122804D1A2
:102010002068016841F480710160134600224FF08E
:1020200001112046009600F05DF840B1206800687C
:10203000C00502D54FF4007020640320F8BD20696C
:10204000B0F5804F0ED00620216800EAD51040F090
:10205000F000086133463A460B49204600F08AF802
:1020600078B902E005F0FE0000E0E8B221680861FE
:10207000054933463A46891F204600F07BF8002880
:10208000DCD00120F8BD00000800010070B5164644
:102090000D4604461EE02046FFF792FF08B10120DE
:1020A00070BD681C16D0FEF787FE801BA84200D8C2
:1020B00085B920684069C04340070BD5002044F82B
:1020C000300F20216173A073216941F0200121614B
:1020D0002073E4E720684069C0434007DBD4002058
:1020E00070BD00002DE9F047984617460D4604469E
:1020F000C1F30746DDF820902AE000BFB8F1FF3FAA
:1021000026D0FEF759FEA0EB0901414502D8B8F1EF
:10211000000F1DD12068012E16D0806925EA00002D
:102120000004000C12D00020B84211D1002044F865
:10213000300F20216173A073216941F020012161DA
:1021400020730120BDE8F0874069E7E70120EBE755
:102150002068012E0AD0806925EA00000004000CE6
:1021600006D00020B842C9D00020EBE74069F3E771
:102170000120F7E72DE9F047984616460D4604463C
:102180004FF000094FF0200AC1F3074723E0206811
:102190004069C043400515D42068016841F40071CE
:1021A000016021686FF480604861C4F8309084F861
:1021B0003DA084F83E90216C41F00401216484F834
:1021C0003C9021E0701C06D0FEF7F6FDA0EB080065
:1021D000B04203D816B1012F1FD021E02068012F93
:1021E00015D0806925EA00000004000C18D000BF5B
:1021F00044F8309F84F80DA084F80E90216941F0D6
:102200002001216184F80C900120BDE8F08740692D
:1022100025EA00000004000CEAD12068406901E0D2
:102220002068806925EA00000004000CAFD1ECE7CB
:1022300070B516460D4604461EE02046FFF7C0FE68
:1022400008B1012070BD681C16D0FEF7B5FD801BDB
:10225000A84200D885B920684069C04300060BD564
:10226000002044F8300F20216173A073216941F0F0
:10227000200121612073E4E720684069C043000623
:10228000DBD4002070BD00003EB500211148009154
:1022900001910F4A0291026001248160047301756B
:1022A0004FF4C0220461C2614160FEF7A7F908B192
:1022B000FEF7B4F80520CDE9000402906946054810
:1022C000FEF71AF9002801D0FEF7A8F83EBD00007D
:1022D0000024014024000020094808B5416941F06C
:1022E000010141614069002200F0010000901146A7
:1022F0000B20FEF75FFFBDE808400B20FEF74CBF48
:102300000010024070B586B000252F480095019559
:1023100002950395816941F020018161816901F095
:1023200020010491816941F004018161816901F01A
:1023300004010491816941F0080181618069234EA3
:1023400000F008000490012208213046FEF72FFD1E
:10235000002210213046FEF72AFD0124CDE9004578
:10236000694630460294FEF72DFC0620009018487E
:10237000CDE9010469463046FEF724FC0820CDE98A
:1023800000040320CDE9024069463046FEF71AFCFE
:102390001020CDE900040294694630460394FEF70C
:1023A00011FC002202210720FEF704FF0720FEF7A0
:1023B000F3FE002202210820FEF7FCFE0820FEF7B3
:1023C000EBFE06B070BD00000010024000080140A6
:1023D000000021100D4810B50B4901600C49416007
:1023E00000214FF480428160C0E9031241618161A4
:1023F000C1610162FEF7E6FC002803D0BDE8104091
:10240000FEF70CB810BD00000054004098000020FA
:10241000A086010010B596B000240F94109411947A
:10242000129413941C2108A81494FDF7CDFE2021CA
:102430006846FDF7C9FE2A48284901600921C0E91C
:10244000011441F61F41C0E903148021C0E9054190
:10245000FFF790FA08B1FDF7E1FF4FF480500F90BD
:102460000FA91F48FFF72EFB08B1FDF7D7FF1C4847
:10247000FFF7F7FC08B1FDF7D1FF139413A9184833
:102480001494FFF743FA08B1FDF7C8FF60200890E5
:102490004FF46160CDE909040B940C940D94002273
:1024A00008A90F480E94FFF776FC08B1FDF7B6FFB8
:1024B00000944FF40050CDE9044002940194039439
:1024C000694607480794FFF7F7F908B1FDF7A6FF3B
:1024D0000348FFF719FC16B010BD0000002C0140A6
:1024E000EC00002010B58EB00024079408940994E5
:1024F0000A940B941C2168460C94FDF765FE1F4856
:102500004FF08041016041F61F41C0E9011442F2E1
:102510000F71C0E903148461FFF72CFA08B1FDF7CD
:102520007DFF4FF48050079007A91448FFF7CAFABF
:1025300008B1FDF773FF1148FFF793FC08B1FDF7F1
:102540006DFF0B940BA90D480C94FFF7DFF908B150
:10255000FDF764FF602000906420CDE901040422AF
:10256000694606480494FFF716FC08B1FDF756FFCC
:102570000248FFF7C9FB0EB010BD00003401002077
:1025800010B586B000241848009401940294039476
:10259000049414490594016041F61F41C0E90114F7
:1025A00041F28731C0E9031480218161FFF7E2F92C
:1025B00008B1FDF733FF4FF48050009069460A4898
:1025C000FFF780FA08B1FDF729FF049404A9064833
:1025D0000594FFF79BF9002801D0FDF71FFF06B017
:1025E00010BD0000000400407C010020FEE7000058
:1025F00070B50E4D064611B1012902D006E0002249
:1026000000E0012210212846FEF7D1FB00240AE059
:10261000012208212846FEF7CAFB0022082128468D
:10262000FEF7C5FB641CB442F2D370BD0008014044
:1026300010B5094C002210212046FEF7B8FB0122FC
:1026400008212046FEF7B3FB20460022BDE81040DB
:102650000821FEF7ACBB000000080140FEE770B5A2
:10266000002404F1B000C0B2002100F005F90021FF
:10267000084600F001F90021102000F0FDF80025C7
:10268000FF21002000F0F8F86D1CEDB2802DF7D38B
:10269000641CE4B2082CE4D370BD10B5C820FEF76A
:1026A00017FA0021AE2000F0E7F80021D52000F055
:1026B000E3F80021802000F0DFF80021A82000F0DE
:1026C000DBF800213F2000F0D7F80021D32000F0F4
:1026D000D3F80021084600F0CFF80021402000F098
:1026E000CBF80021A12000F0C7F80021C82000F09D
:1026F000C3F80021DA2000F0BFF80021122000F01A
:10270000BBF80021812000F0B7F80021CF2000F0B5
:10271000B3F80021D92000F0AFF80021F12000F03B
:10272000ABF80021DB2000F0A7F80021302000F0FA
:10273000A3F80021A42000F09FF80021A62000F0BB
:102740009BF800218D2000F097F80021142000F064
:1027500093F80021BDE81040AF2000F08DB810B50F
:102760000446B031C8B2002100F086F8102040EADB
:102770001410002100F080F804F00F00BDE81040B4
:10278000002100F079B800002DE9F041203A002442
:102790000D468046D6B27F2803D900208D1C804686
:1027A000EDB2102B294610D0FFF7D9FF164906EBE2
:1027B000460001EB4005FF21285D00F05DF8641C38
:1027C000E4B2062CF7D3BDE8F081FFF7C8FF0F4F46
:1027D00004EB0610FF21385C00F04EF8641CE4B2F4
:1027E000082CF5D36D1CE9B24046FFF7B8FF002472
:1027F00004EB06103844FF21007A00F03DF8641C19
:10280000E4B2082CF4D3DEE7C02C0008E82E000860
:102810002DE9FF5F0026DDE90EA91D46934680469F
:1028200034464FEA5A0723E0281B401EC1B24846EF
:1028300000F020FABBFBF0F1B1FBF9F209FB12103A
:10284000C0B226B9691E8C4201DA38B10126303097
:10285000C2B207FB0480C0B2534604E007FB048009
:10286000C0B2534620220199FFF78EFF641CE4B2E8
:10287000AC42D9D3BDE8FF9F08B5074A01B140215A
:10288000117050700A2000900223034A78210348F7
:10289000FEF75CFB08BD000020000020980000202F
:1028A0007047704710B50446FEF714FE0849B0FBA8
:1028B000F1F0FEF7EBFF601EFEF70AF9FEF70AFEE5
:1028C0004FF47A71B0FBF1F0BDE81040FEF7DEBFC7
:1028D00040420F00FEF708BC30B593B0282168468F
:1028E000FDF772FC14210AA8FDF76EFC00250120FB
:1028F0000F9510951195010412958DE82300049011
:102900004FF4E010CDE90810022407946846FEF762
:102910002DFE08B172B6FEE70AA90F2081E831004A
:102920004FF48060CDE90D0502210AA8FEF73CFDB9
:1029300008B172B6FEE74FF4004011900F940FA853
:10294000FEF7BCFC002801D072B6FEE713B030BD24
:10295000704700000148FFF724B900007C01002007
:10296000F0B50268164B174C174D4FF08047984250
:1029700005D0B84203D0A04201D0A84203D122F032
:1029800070064A683243984205D0B84203D0A0424C
:1029900001D0A84203D122F44074CA6822434C6992
:1029A00022F08002224302608A68C2620A68826260
:1029B000984201D10969016301214161F0BD000024
:1029C000002C0140000400400008004010B501F058
:1029D0001F030121046A99408C430462016A9A40F2
:1029E0001143016210BD10B5846842EA032224F449
:1029F0007F440A432243826010BD826822F0700245
:102A00000A4342F0070181607047000030B5036A55
:102A1000026A22F0010202624268846924F07305AE
:102A20000C682C4323F002058B682B430A4DA84207
:102A30000BD123F00805CB6822F440722B434D697B
:102A400023F0040315438A692A434260846149687C
:102A50004163036230BD0000002C014030B5026AC2
:102A6000036A23F010030362436884690D6824F449
:102A7000E64444EA05248D6822F0200242EA051269
:102A80000B4DA8420ED1CD6822F0800242EA051219
:102A90004D6923F4406343EA85038D6922F04002C7
:102AA00043EA85034360846149688163026230BD03
:102AB000002C014030B5036A026A22F4807202627F
:102AC0004268C46923F4007324F073050C682C4336
:102AD0008D6843EA05230C4DA8420ED1CD6823F43E
:102AE000006343EA05234D6922F4405242EA05128D
:102AF0008D6923F4806342EA05124260C46149682B
:102B0000C163036230BD0000002C014030B5046A8F
:102B1000026A22F4805202624268C3690D6823F49B
:102B2000E64343EA05238D6824F4005444EA05345F
:102B3000064DA84204D14D6922F4804242EA851232
:102B40004260C36149680164046230BD002C0140E9
:102B500010B5036A046A24F001040462846924F055
:102B6000F00444EA021423F00A020A438461026278
:102B700010BD10B5036A046A24F01004046284696D
:102B800023F0A00324F4704444EA023243EA011122
:102B90008261016210BDFEE70907090E002804DB0F
:102BA00000F1E02080F80014704700F00F0000F101
:102BB000E02080F8141D70471CB5FEF79DFAFFF762
:102BC0008BFEFFF79FFBFFF787FBFFF7D9FCFFF7B3
:102BD00001FCFFF759FBFFF785FCFFF71BFCFFF734
:102BE0005CFDFFF73CFD1E496FF0010009680861BC
:102BF0001C48FDF715FC1C48FEF720FF00211B4870
:102C0000FFF75EF904211848FFF75AF90122184925
:102C10001448FDF7C7FD0A251026154CCDE90065BF
:102C20000121042308466268FFF7F2FDCDE9006543
:102C3000032101230846E268FFF7EAFDCDE90065BC
:102C40000521042322880846FFF7E2FDE0680028FA
:102C5000FCD16068FFF726FEFFF7EAFCF6E700000C
:102C60007C0100202400002034010020EC00002022
:102C7000000000200246012000E05043491EC9B276
:102C8000FBD27047010202030405060708090A0B7C
:102C90000C0D0E0F101001020203040506070809AF
:102CA0000A0B0C0D0E0F10100000000000000000B9
:102CB00001020304060708090000000001020304E2
:102CC0000000000000000000002F000000000700CE
:102CD000070000147F147F1400242A7F2A12006248
:102CE00064081323003649552250000005030000F4
:102CF00000001C224100000041221C000014083E7C
:102D000008140008083E0808000000A06000000841
:102D10000808080800006060000000201008040295
:102D2000003E5149453E0000427F40000042615153
:102D30004946002141454B31001814127F100027ED
:102D400045454539003C4A494930000171090503B0
:102D500000364949493600064949291E00003636E1
:102D60000000000056360000000814224100001444
:102D70001414141400004122140800020151090621
:102D800000324959513E007C1211127C007F4949A2
:102D90004936003E41414122007F4141221C007FD3
:102DA00049494941007F09090901003E4149497AE1
:102DB000007F0808087F0000417F4100002040415B
:102DC0003F01007F08142241007F40404040007FC7
:102DD000020C027F007F0408107F003E4141413E0B
:102DE000007F09090906003E4151215E007F091953
:102DF00029460046494949310001017F0101003F50
:102E00004040403F001F2040201F003F4038403FCF
:102E10000063140814630007087008070061514933
:102E2000454300007F41410000552A552A550000C6
:102E300041417F0000040201020400404040404044
:102E4000000001020400002054545478007F4844DC
:102E5000443800384444442000384444487F003813
:102E60005454541800087E0901020018A4A4A47C3C
:102E7000007F080404780000447D40000040808406
:102E80007D00007F102844000000417F4000007C4E
:102E900004180478007C080404780038444444385A
:102EA00000FC242424180018242418FC007C0804A6
:102EB000040800485454542000043F444020003C7F
:102EC0004040207C001C2040201C003C4030403C06
:102ED000004428102844001CA0A0A07C0044645496
:102EE0004C441414141414140000000000000000DA
:102EF0000000000000000000000000F800000000DA
:102F0000000000333000000000100C06100C06001A
:102F1000000000000000000040C07840C078400081
:102F2000043F04043F040400007088FC08300000E3
:102F3000001820FF211E0000F008F000E01800003B
:102F400000211C031E211E0000F0088870000000F4
:102F50001E2123241927211010160E000000000046
:102F60000000000000000000000000E01804020063
:102F7000000000071820400000020418E0000000D4
:102F80000040201807000000404080F080404000D2
:102F90000202010F01020200000000F00000000028
:102FA0000101011F010101000000000000000000FC
:102FB00080B0700000000000000000000000000071
:102FC00000010101010101010000000000000000FA
:102FD0000030300000000000000000008060180495
:102FE000006018060100000000E010080810E00072
:102FF000000F102020100F00001010F8000000003B
:103000000020203F20200000007008080888700081
:103010000030282422213000003008888848300001
:103020000018202020110E000000C02010F8000021
:1030300000070424243F240000F8088888080800BA
:103040000019212020110E0000E0108888180000CF
:10305000000F112020110E0000380808C8380800A1
:103060000000003F00000000007088080888700021
:10307000001C222121221C0000E010080810E000A2
:103080000000312222110F00000000C0C00000002B
:103090000000003030000000000000800000000050
:1030A0000000806000000000000080402010080048
:1030B0000001020408102000404040404040400011
:1030C00004040404040404000008102040800000EC
:1030D0000020100804020100007048080808F000F1
:1030E0000000003036010000C030C828E810E000C1
:1030F0000718272423140B000000C038E00000004C
:10310000203C23020227382008F8888888700000B5
:10311000203F202020110E00C03008080808380089
:10312000071820202010080008F808080810E00000
:10313000203F202020100F0008F88888E8081000A1
:10314000203F20202320180008F88888E808100075
:10315000203F200003000000C030080808380000AD
:1031600007182020221E020008F808000008F808AE
:10317000203F210101213F20000808F80808000035
:103180000020203F2020000000000808F808080068
:10319000C08080807F00000008F888C028180800E0
:1031A000203F20012638200008F808000000000019
:1031B000203F20202020300008F8F800F8F8080010
:1031C000203F003F003F200008F830C00008F8080A
:1031D000203F200007183F00E01008080810E0001A
:1031E0000F10202020100F0008F808080808F00031
:1031F000203F210101010000E01008080810E00054
:103200000F18242438504F0008F8888888887000E8
:10321000203F2000030C3020007088080808380088
:103220000038202121221C00180808F8080818007E
:103230000000203F2000000008F808000008F808FF
:10324000001F202020201F000878880000C83808B0
:10325000000007380E010000F80800F80008F80028
:10326000033C0700073C03000818688080681808C2
:1032700020302C03032C30200838C800C838080040
:103280000000203F2000000010080808C83808008F
:103290002038262120201800000000FE0202020033
:1032A0000000007F40404000000C30C000000000E3
:1032B000000000010638C00000020202FE0000000B
:1032C000004040407F0000000000040202020400B1
:1032D00000000000000000000000000000000000EE
:1032E00080808080808080800002020400000000D6
:1032F00000000000000000000000808080800000CE
:103300000019242222223F2008F8008080000000BB
:10331000003F112020110E0000000080808000007E
:10332000000E112020201100000000808088F8008D
:10333000000E112020103F200000808080800000BF
:10334000001F222222221300008080F08888881823
:103350000020203F2020000000008080808080002E
:10336000006B94949493600008F8008080800000C3
:10337000203F210000203F2000809898000000009E
:103380000020203F202000000000008098980000CE
:1033900000C08080807F000008F8000080808000EE
:1033A000203F24022D302000000808F80000000013
:1033B0000020203F202000008080808080808000CE
:1033C000203F20003F20003F808000808080000060
:1033D000203F210000203F200000808080800000EE
:1033E000001F202020201F0080800080800000001F
:1033F00080FFA12020110E0000000080808080004E
:10340000000E112020A0FF8080808000808080003E
:1034100020203F212000010000008080808080006B
:103420000033242424241900008080E080800000E0
:103430000000001F2020000080800000008080002D
:10344000001F202020103F2080808000008080808E
:1034500000010E300806010080800080008080801E
:103460000F300C030C300F00008080008080800043
:103470000020312E0E31200080808000008080806E
:1034800080818E701806010000808080808080001E
:103490000021302C2221300000000000807C02023C
:1034A00000000000003F404000000000FF0000005E
:1034B00000000000FF0000000002027C800000000D
:1034C0000040403F00000000000601010202040429
:1034D00000000000000000000000F010101010FFBD
:1034E00010101010F00000000000000000000000AC
:1034F000000000000000000000000F04040404FFAE
:10350000040404040F00000000000000000000009C
:1035100000000000000000004040405F5555557518
:103520005555555F4040400000000000000000007D
:1035300000000000000000000040200F09498979C8
:103540000909090F204000000000000000000000F1
:10355000000000000000000000FE02424ACA4A4A81
:10356000CA4A4A4202FE00000000000000000000BB
:10357000000000000000000000FF40504C434040AD
:103580004F50505C40FF00000000000000000000B1
:1035900000000000000000000000F888888888FF14
:1035A00088888888F8000000000000000000000003
:1035B000000000000000000000001F080808087F4D
:1035C000888888889F80F0000000000000000000CC
:1035D000000000000000000080828282828282E27D
:1035E000A2928A8682808000000000000000000015
:1035F0000000000000000000000000000040807F8C
:1036000000000000000000000000000000000000BA
:1036100000000000000000002424A4FEA3220022D9
:10362000CC0000FF000000000000000000000000CF
:103630000000000000000000080601FF0001040473
:10364000040404FF02020200000000000000000069
:103650000000000000000000101010FF109008880B
:103660008888FF88888808000000000000000000AB
:1036700000000000000000000444827F01808040C0
:10368000432C10284681800000000000000000004C
:1036900000000000000000004040484848C8784F43
:1036A0004848484848404000000000000000000032
:1036B00000000000000000000000000003121222C1
:1036C00022528A06000000000000000000000000F6
:1036D00000000000000000000010608000FF0000FB
:1036E00000FF0000C03000000000000000000000EB
:1036F000000000000000000040404043407F404088
:10370000407F4241404040000000000000000000B7
:103710000000000000000000101010FF109008884A
:103720008888FF88888808000000000000000000EA
:1037300000000000000000000444827F01808040FF
:10374000432C10284681800000000000000000008B
:1037500000000000000000000010101010D030FF2A
:1037600030D0121C1010000000000000000000000B
:10377000000000000000000010080402010000FF2B
:10378000000001020408100000000000000000001A
:1037900000000000000000000000FE222222FE00C7
:1037A000FE828292A29E0000000000000000000045
:1037B000000000000000000080601F0242827F00C5
:1037C000FF402F102C43800000000000000000008C
:1037D0000000000000000000000090884C57A42466
:1037E00054548C8400000000000000000000000021
:1037F000000000000000000001018042221A0702C0
:103800004282423E01010100000000000000000071
:1038100000000000000000000004E4242CB4252671
:1038200024B42C24E4040000000000000000000088
:1038300000000000000000000000FF02011E121244
:10384000121E41827F000000000000000000000006
:103850000000000000000000783800080000002090
:1038600024000000280100089C38000824000020E3
:10387000040800004401000800000000D007000018
:103880000000000000000000010000001000000027
:0C389000000000000024F4000000000014
:04000005080000ED02
:00000001FF
